{
	"contracts/TodoList.sol": {
		"TodoList": {
			"abi": [
				{
					"inputs": [
						{
							"internalType": "string",
							"name": "name",
							"type": "string"
						}
					],
					"name": "addTask",
					"outputs": [],
					"stateMutability": "nonpayable",
					"type": "function"
				},
				{
					"inputs": [
						{
							"internalType": "uint256",
							"name": "index",
							"type": "uint256"
						},
						{
							"internalType": "string",
							"name": "newName",
							"type": "string"
						}
					],
					"name": "changeName",
					"outputs": [],
					"stateMutability": "nonpayable",
					"type": "function"
				},
				{
					"inputs": [
						{
							"internalType": "uint256",
							"name": "index",
							"type": "uint256"
						}
					],
					"name": "getTask",
					"outputs": [
						{
							"internalType": "string",
							"name": "",
							"type": "string"
						},
						{
							"internalType": "bool",
							"name": "",
							"type": "bool"
						}
					],
					"stateMutability": "view",
					"type": "function"
				},
				{
					"inputs": [
						{
							"internalType": "uint256",
							"name": "",
							"type": "uint256"
						}
					],
					"name": "list",
					"outputs": [
						{
							"internalType": "string",
							"name": "name",
							"type": "string"
						},
						{
							"internalType": "bool",
							"name": "isCompleted",
							"type": "bool"
						}
					],
					"stateMutability": "view",
					"type": "function"
				},
				{
					"inputs": [
						{
							"internalType": "uint256",
							"name": "index",
							"type": "uint256"
						},
						{
							"internalType": "bool",
							"name": "isDone",
							"type": "bool"
						}
					],
					"name": "setStatus",
					"outputs": [],
					"stateMutability": "nonpayable",
					"type": "function"
				},
				{
					"inputs": [
						{
							"internalType": "uint256",
							"name": "index",
							"type": "uint256"
						}
					],
					"name": "toggleStatus",
					"outputs": [],
					"stateMutability": "nonpayable",
					"type": "function"
				}
			],
			"devdoc": {
				"kind": "dev",
				"methods": {},
				"version": 1
			},
			"evm": {
				"assembly": "    /* \"contracts/TodoList.sol\":60:817  contract TodoList {... */\n  mstore(0x40, 0x80)\n  callvalue\n  dup1\n  iszero\n  tag_1\n  jumpi\n  0x00\n  dup1\n  revert\ntag_1:\n  pop\n  dataSize(sub_0)\n  dup1\n  dataOffset(sub_0)\n  0x00\n  codecopy\n  0x00\n  return\nstop\n\nsub_0: assembly {\n        /* \"contracts/TodoList.sol\":60:817  contract TodoList {... */\n      mstore(0x40, 0x80)\n      callvalue\n      dup1\n      iszero\n      tag_1\n      jumpi\n      0x00\n      dup1\n      revert\n    tag_1:\n      pop\n      jumpi(tag_2, lt(calldatasize, 0x04))\n      shr(0xe0, calldataload(0x00))\n      dup1\n      0x1d65e77e\n      eq\n      tag_3\n      jumpi\n      dup1\n      0x51db2e76\n      eq\n      tag_4\n      jumpi\n      dup1\n      0x67238562\n      eq\n      tag_5\n      jumpi\n      dup1\n      0x80c9419e\n      eq\n      tag_6\n      jumpi\n      dup1\n      0x8719e8ac\n      eq\n      tag_7\n      jumpi\n      dup1\n      0xc39cbef1\n      eq\n      tag_8\n      jumpi\n    tag_2:\n      0x00\n      dup1\n      revert\n        /* \"contracts/TodoList.sol\":638:812  function getTask(uint index) external view returns(string memory, bool){... */\n    tag_3:\n      tag_9\n      0x04\n      dup1\n      calldatasize\n      sub\n      dup2\n      add\n      swap1\n      tag_10\n      swap2\n      swap1\n      tag_11\n      jump\t// in\n    tag_10:\n      tag_12\n      jump\t// in\n    tag_9:\n      mload(0x40)\n      tag_13\n      swap3\n      swap2\n      swap1\n      tag_14\n      jump\t// in\n    tag_13:\n      mload(0x40)\n      dup1\n      swap2\n      sub\n      swap1\n      return\n        /* \"contracts/TodoList.sol\":518:630  function toggleStatus(uint index) external {... */\n    tag_4:\n      tag_15\n      0x04\n      dup1\n      calldatasize\n      sub\n      dup2\n      add\n      swap1\n      tag_16\n      swap2\n      swap1\n      tag_11\n      jump\t// in\n    tag_16:\n      tag_17\n      jump\t// in\n    tag_15:\n      stop\n        /* \"contracts/TodoList.sol\":187:281  function addTask(string memory name) external  {... */\n    tag_5:\n      tag_18\n      0x04\n      dup1\n      calldatasize\n      sub\n      dup2\n      add\n      swap1\n      tag_19\n      swap2\n      swap1\n      tag_20\n      jump\t// in\n    tag_19:\n      tag_21\n      jump\t// in\n    tag_18:\n      stop\n        /* \"contracts/TodoList.sol\":160:178  Task[] public list */\n    tag_6:\n      tag_22\n      0x04\n      dup1\n      calldatasize\n      sub\n      dup2\n      add\n      swap1\n      tag_23\n      swap2\n      swap1\n      tag_11\n      jump\t// in\n    tag_23:\n      tag_24\n      jump\t// in\n    tag_22:\n      mload(0x40)\n      tag_25\n      swap3\n      swap2\n      swap1\n      tag_14\n      jump\t// in\n    tag_25:\n      mload(0x40)\n      dup1\n      swap2\n      sub\n      swap1\n      return\n        /* \"contracts/TodoList.sol\":406:510  function setStatus(uint index, bool isDone) external {... */\n    tag_7:\n      tag_26\n      0x04\n      dup1\n      calldatasize\n      sub\n      dup2\n      add\n      swap1\n      tag_27\n      swap2\n      swap1\n      tag_28\n      jump\t// in\n    tag_27:\n      tag_29\n      jump\t// in\n    tag_26:\n      stop\n        /* \"contracts/TodoList.sol\":289:398  function changeName(uint index, string memory newName) external {... */\n    tag_8:\n      tag_30\n      0x04\n      dup1\n      calldatasize\n      sub\n      dup2\n      add\n      swap1\n      tag_31\n      swap2\n      swap1\n      tag_32\n      jump\t// in\n    tag_31:\n      tag_33\n      jump\t// in\n    tag_30:\n      stop\n        /* \"contracts/TodoList.sol\":638:812  function getTask(uint index) external view returns(string memory, bool){... */\n    tag_12:\n        /* \"contracts/TodoList.sol\":689:702  string memory */\n      0x60\n        /* \"contracts/TodoList.sol\":704:708  bool */\n      0x00\n        /* \"contracts/TodoList.sol\":720:739  Task storage target */\n      dup1\n        /* \"contracts/TodoList.sol\":742:746  list */\n      0x00\n        /* \"contracts/TodoList.sol\":747:752  index */\n      dup5\n        /* \"contracts/TodoList.sol\":742:753  list[index] */\n      dup2\n      sload\n      dup2\n      lt\n      tag_35\n      jumpi\n      tag_36\n      tag_37\n      jump\t// in\n    tag_36:\n    tag_35:\n      swap1\n      0x00\n      mstore\n      keccak256(0x00, 0x20)\n      swap1\n      0x02\n      mul\n      add\n        /* \"contracts/TodoList.sol\":720:753  Task storage target = list[index] */\n      swap1\n      pop\n        /* \"contracts/TodoList.sol\":772:778  target */\n      dup1\n        /* \"contracts/TodoList.sol\":772:783  target.name */\n      0x00\n      add\n        /* \"contracts/TodoList.sol\":785:791  target */\n      dup2\n        /* \"contracts/TodoList.sol\":785:803  target.isCompleted */\n      0x01\n      add\n      0x00\n      swap1\n      sload\n      swap1\n      0x0100\n      exp\n      swap1\n      div\n      0xff\n      and\n        /* \"contracts/TodoList.sol\":764:804  return (target.name, target.isCompleted) */\n      dup2\n      dup1\n      sload\n      tag_39\n      swap1\n      tag_40\n      jump\t// in\n    tag_39:\n      dup1\n      0x1f\n      add\n      0x20\n      dup1\n      swap2\n      div\n      mul\n      0x20\n      add\n      mload(0x40)\n      swap1\n      dup2\n      add\n      0x40\n      mstore\n      dup1\n      swap3\n      swap2\n      swap1\n      dup2\n      dup2\n      mstore\n      0x20\n      add\n      dup3\n      dup1\n      sload\n      tag_41\n      swap1\n      tag_40\n      jump\t// in\n    tag_41:\n      dup1\n      iszero\n      tag_42\n      jumpi\n      dup1\n      0x1f\n      lt\n      tag_43\n      jumpi\n      0x0100\n      dup1\n      dup4\n      sload\n      div\n      mul\n      dup4\n      mstore\n      swap2\n      0x20\n      add\n      swap2\n      jump(tag_42)\n    tag_43:\n      dup3\n      add\n      swap2\n      swap1\n      0x00\n      mstore\n      keccak256(0x00, 0x20)\n      swap1\n    tag_44:\n      dup2\n      sload\n      dup2\n      mstore\n      swap1\n      0x01\n      add\n      swap1\n      0x20\n      add\n      dup1\n      dup4\n      gt\n      tag_44\n      jumpi\n      dup3\n      swap1\n      sub\n      0x1f\n      and\n      dup3\n      add\n      swap2\n    tag_42:\n      pop\n      pop\n      pop\n      pop\n      pop\n      swap2\n      pop\n      swap3\n      pop\n      swap3\n      pop\n      pop\n        /* \"contracts/TodoList.sol\":638:812  function getTask(uint index) external view returns(string memory, bool){... */\n      swap2\n      pop\n      swap2\n      jump\t// out\n        /* \"contracts/TodoList.sol\":518:630  function toggleStatus(uint index) external {... */\n    tag_17:\n        /* \"contracts/TodoList.sol\":599:603  list */\n      0x00\n        /* \"contracts/TodoList.sol\":604:609  index */\n      dup2\n        /* \"contracts/TodoList.sol\":599:610  list[index] */\n      dup2\n      sload\n      dup2\n      lt\n      tag_46\n      jumpi\n      tag_47\n      tag_37\n      jump\t// in\n    tag_47:\n    tag_46:\n      swap1\n      0x00\n      mstore\n      keccak256(0x00, 0x20)\n      swap1\n      0x02\n      mul\n      add\n        /* \"contracts/TodoList.sol\":599:622  list[index].isCompleted */\n      0x01\n      add\n      0x00\n      swap1\n      sload\n      swap1\n      0x0100\n      exp\n      swap1\n      div\n      0xff\n      and\n        /* \"contracts/TodoList.sol\":598:622  !list[index].isCompleted */\n      iszero\n        /* \"contracts/TodoList.sol\":572:576  list */\n      0x00\n        /* \"contracts/TodoList.sol\":577:582  index */\n      dup3\n        /* \"contracts/TodoList.sol\":572:583  list[index] */\n      dup2\n      sload\n      dup2\n      lt\n      tag_49\n      jumpi\n      tag_50\n      tag_37\n      jump\t// in\n    tag_50:\n    tag_49:\n      swap1\n      0x00\n      mstore\n      keccak256(0x00, 0x20)\n      swap1\n      0x02\n      mul\n      add\n        /* \"contracts/TodoList.sol\":572:595  list[index].isCompleted */\n      0x01\n      add\n      0x00\n        /* \"contracts/TodoList.sol\":572:622  list[index].isCompleted = !list[index].isCompleted */\n      0x0100\n      exp\n      dup2\n      sload\n      dup2\n      0xff\n      mul\n      not\n      and\n      swap1\n      dup4\n      iszero\n      iszero\n      mul\n      or\n      swap1\n      sstore\n      pop\n        /* \"contracts/TodoList.sol\":518:630  function toggleStatus(uint index) external {... */\n      pop\n      jump\t// out\n        /* \"contracts/TodoList.sol\":187:281  function addTask(string memory name) external  {... */\n    tag_21:\n        /* \"contracts/TodoList.sol\":245:249  list */\n      0x00\n        /* \"contracts/TodoList.sol\":255:272  Task(name, false) */\n      mload(0x40)\n      dup1\n      0x40\n      add\n      0x40\n      mstore\n      dup1\n        /* \"contracts/TodoList.sol\":260:264  name */\n      dup4\n        /* \"contracts/TodoList.sol\":255:272  Task(name, false) */\n      dup2\n      mstore\n      0x20\n      add\n        /* \"contracts/TodoList.sol\":266:271  false */\n      0x00\n        /* \"contracts/TodoList.sol\":255:272  Task(name, false) */\n      iszero\n      iszero\n      dup2\n      mstore\n      pop\n        /* \"contracts/TodoList.sol\":245:273  list.push(Task(name, false)) */\n      swap1\n      dup1\n      0x01\n      dup2\n      sload\n      add\n      dup1\n      dup3\n      sstore\n      dup1\n      swap2\n      pop\n      pop\n      0x01\n      swap1\n      sub\n      swap1\n      0x00\n      mstore\n      keccak256(0x00, 0x20)\n      swap1\n      0x02\n      mul\n      add\n      0x00\n      swap1\n      swap2\n      swap1\n      swap2\n      swap1\n      swap2\n      pop\n      0x00\n      dup3\n      add\n      mload\n      dup2\n      0x00\n      add\n      swap1\n      dup2\n      tag_54\n      swap2\n      swap1\n      tag_55\n      jump\t// in\n    tag_54:\n      pop\n      0x20\n      dup3\n      add\n      mload\n      dup2\n      0x01\n      add\n      exp(0x0100, 0x00)\n      dup2\n      sload\n      dup2\n      0xff\n      mul\n      not\n      and\n      swap1\n      dup4\n      iszero\n      iszero\n      mul\n      or\n      swap1\n      sstore\n      pop\n      pop\n      pop\n        /* \"contracts/TodoList.sol\":187:281  function addTask(string memory name) external  {... */\n      pop\n      jump\t// out\n        /* \"contracts/TodoList.sol\":160:178  Task[] public list */\n    tag_24:\n      0x00\n      dup2\n      dup2\n      sload\n      dup2\n      lt\n      tag_56\n      jumpi\n      0x00\n      dup1\n      revert\n    tag_56:\n      swap1\n      0x00\n      mstore\n      keccak256(0x00, 0x20)\n      swap1\n      0x02\n      mul\n      add\n      0x00\n      swap2\n      pop\n      swap1\n      pop\n      dup1\n      0x00\n      add\n      dup1\n      sload\n      tag_58\n      swap1\n      tag_40\n      jump\t// in\n    tag_58:\n      dup1\n      0x1f\n      add\n      0x20\n      dup1\n      swap2\n      div\n      mul\n      0x20\n      add\n      mload(0x40)\n      swap1\n      dup2\n      add\n      0x40\n      mstore\n      dup1\n      swap3\n      swap2\n      swap1\n      dup2\n      dup2\n      mstore\n      0x20\n      add\n      dup3\n      dup1\n      sload\n      tag_59\n      swap1\n      tag_40\n      jump\t// in\n    tag_59:\n      dup1\n      iszero\n      tag_60\n      jumpi\n      dup1\n      0x1f\n      lt\n      tag_61\n      jumpi\n      0x0100\n      dup1\n      dup4\n      sload\n      div\n      mul\n      dup4\n      mstore\n      swap2\n      0x20\n      add\n      swap2\n      jump(tag_60)\n    tag_61:\n      dup3\n      add\n      swap2\n      swap1\n      0x00\n      mstore\n      keccak256(0x00, 0x20)\n      swap1\n    tag_62:\n      dup2\n      sload\n      dup2\n      mstore\n      swap1\n      0x01\n      add\n      swap1\n      0x20\n      add\n      dup1\n      dup4\n      gt\n      tag_62\n      jumpi\n      dup3\n      swap1\n      sub\n      0x1f\n      and\n      dup3\n      add\n      swap2\n    tag_60:\n      pop\n      pop\n      pop\n      pop\n      pop\n      swap1\n      dup1\n      0x01\n      add\n      0x00\n      swap1\n      sload\n      swap1\n      0x0100\n      exp\n      swap1\n      div\n      0xff\n      and\n      swap1\n      pop\n      dup3\n      jump\t// out\n        /* \"contracts/TodoList.sol\":406:510  function setStatus(uint index, bool isDone) external {... */\n    tag_29:\n        /* \"contracts/TodoList.sol\":496:502  isDone */\n      dup1\n        /* \"contracts/TodoList.sol\":470:474  list */\n      0x00\n        /* \"contracts/TodoList.sol\":475:480  index */\n      dup4\n        /* \"contracts/TodoList.sol\":470:481  list[index] */\n      dup2\n      sload\n      dup2\n      lt\n      tag_64\n      jumpi\n      tag_65\n      tag_37\n      jump\t// in\n    tag_65:\n    tag_64:\n      swap1\n      0x00\n      mstore\n      keccak256(0x00, 0x20)\n      swap1\n      0x02\n      mul\n      add\n        /* \"contracts/TodoList.sol\":470:493  list[index].isCompleted */\n      0x01\n      add\n      0x00\n        /* \"contracts/TodoList.sol\":470:502  list[index].isCompleted = isDone */\n      0x0100\n      exp\n      dup2\n      sload\n      dup2\n      0xff\n      mul\n      not\n      and\n      swap1\n      dup4\n      iszero\n      iszero\n      mul\n      or\n      swap1\n      sstore\n      pop\n        /* \"contracts/TodoList.sol\":406:510  function setStatus(uint index, bool isDone) external {... */\n      pop\n      pop\n      jump\t// out\n        /* \"contracts/TodoList.sol\":289:398  function changeName(uint index, string memory newName) external {... */\n    tag_33:\n        /* \"contracts/TodoList.sol\":383:390  newName */\n      dup1\n        /* \"contracts/TodoList.sol\":364:368  list */\n      0x00\n        /* \"contracts/TodoList.sol\":369:374  index */\n      dup4\n        /* \"contracts/TodoList.sol\":364:375  list[index] */\n      dup2\n      sload\n      dup2\n      lt\n      tag_68\n      jumpi\n      tag_69\n      tag_37\n      jump\t// in\n    tag_69:\n    tag_68:\n      swap1\n      0x00\n      mstore\n      keccak256(0x00, 0x20)\n      swap1\n      0x02\n      mul\n      add\n        /* \"contracts/TodoList.sol\":364:380  list[index].name */\n      0x00\n      add\n        /* \"contracts/TodoList.sol\":364:390  list[index].name = newName */\n      swap1\n      dup2\n      tag_71\n      swap2\n      swap1\n      tag_55\n      jump\t// in\n    tag_71:\n      pop\n        /* \"contracts/TodoList.sol\":289:398  function changeName(uint index, string memory newName) external {... */\n      pop\n      pop\n      jump\t// out\n        /* \"#utility.yul\":7:82   */\n    tag_72:\n        /* \"#utility.yul\":40:46   */\n      0x00\n        /* \"#utility.yul\":73:75   */\n      0x40\n        /* \"#utility.yul\":67:76   */\n      mload\n        /* \"#utility.yul\":57:76   */\n      swap1\n      pop\n        /* \"#utility.yul\":7:82   */\n      swap1\n      jump\t// out\n        /* \"#utility.yul\":88:205   */\n    tag_73:\n        /* \"#utility.yul\":197:198   */\n      0x00\n        /* \"#utility.yul\":194:195   */\n      dup1\n        /* \"#utility.yul\":187:199   */\n      revert\n        /* \"#utility.yul\":211:328   */\n    tag_74:\n        /* \"#utility.yul\":320:321   */\n      0x00\n        /* \"#utility.yul\":317:318   */\n      dup1\n        /* \"#utility.yul\":310:322   */\n      revert\n        /* \"#utility.yul\":334:411   */\n    tag_75:\n        /* \"#utility.yul\":371:378   */\n      0x00\n        /* \"#utility.yul\":400:405   */\n      dup2\n        /* \"#utility.yul\":389:405   */\n      swap1\n      pop\n        /* \"#utility.yul\":334:411   */\n      swap2\n      swap1\n      pop\n      jump\t// out\n        /* \"#utility.yul\":417:539   */\n    tag_76:\n        /* \"#utility.yul\":490:514   */\n      tag_118\n        /* \"#utility.yul\":508:513   */\n      dup2\n        /* \"#utility.yul\":490:514   */\n      tag_75\n      jump\t// in\n    tag_118:\n        /* \"#utility.yul\":483:488   */\n      dup2\n        /* \"#utility.yul\":480:515   */\n      eq\n        /* \"#utility.yul\":470:533   */\n      tag_119\n      jumpi\n        /* \"#utility.yul\":529:530   */\n      0x00\n        /* \"#utility.yul\":526:527   */\n      dup1\n        /* \"#utility.yul\":519:531   */\n      revert\n        /* \"#utility.yul\":470:533   */\n    tag_119:\n        /* \"#utility.yul\":417:539   */\n      pop\n      jump\t// out\n        /* \"#utility.yul\":545:684   */\n    tag_77:\n        /* \"#utility.yul\":591:596   */\n      0x00\n        /* \"#utility.yul\":629:635   */\n      dup2\n        /* \"#utility.yul\":616:636   */\n      calldataload\n        /* \"#utility.yul\":607:636   */\n      swap1\n      pop\n        /* \"#utility.yul\":645:678   */\n      tag_121\n        /* \"#utility.yul\":672:677   */\n      dup2\n        /* \"#utility.yul\":645:678   */\n      tag_76\n      jump\t// in\n    tag_121:\n        /* \"#utility.yul\":545:684   */\n      swap3\n      swap2\n      pop\n      pop\n      jump\t// out\n        /* \"#utility.yul\":690:1019   */\n    tag_11:\n        /* \"#utility.yul\":749:755   */\n      0x00\n        /* \"#utility.yul\":798:800   */\n      0x20\n        /* \"#utility.yul\":786:795   */\n      dup3\n        /* \"#utility.yul\":777:784   */\n      dup5\n        /* \"#utility.yul\":773:796   */\n      sub\n        /* \"#utility.yul\":769:801   */\n      slt\n        /* \"#utility.yul\":766:885   */\n      iszero\n      tag_123\n      jumpi\n        /* \"#utility.yul\":804:883   */\n      tag_124\n      tag_73\n      jump\t// in\n    tag_124:\n        /* \"#utility.yul\":766:885   */\n    tag_123:\n        /* \"#utility.yul\":924:925   */\n      0x00\n        /* \"#utility.yul\":949:1002   */\n      tag_125\n        /* \"#utility.yul\":994:1001   */\n      dup5\n        /* \"#utility.yul\":985:991   */\n      dup3\n        /* \"#utility.yul\":974:983   */\n      dup6\n        /* \"#utility.yul\":970:992   */\n      add\n        /* \"#utility.yul\":949:1002   */\n      tag_77\n      jump\t// in\n    tag_125:\n        /* \"#utility.yul\":939:1002   */\n      swap2\n      pop\n        /* \"#utility.yul\":895:1012   */\n      pop\n        /* \"#utility.yul\":690:1019   */\n      swap3\n      swap2\n      pop\n      pop\n      jump\t// out\n        /* \"#utility.yul\":1025:1124   */\n    tag_78:\n        /* \"#utility.yul\":1077:1083   */\n      0x00\n        /* \"#utility.yul\":1111:1116   */\n      dup2\n        /* \"#utility.yul\":1105:1117   */\n      mload\n        /* \"#utility.yul\":1095:1117   */\n      swap1\n      pop\n        /* \"#utility.yul\":1025:1124   */\n      swap2\n      swap1\n      pop\n      jump\t// out\n        /* \"#utility.yul\":1130:1299   */\n    tag_79:\n        /* \"#utility.yul\":1214:1225   */\n      0x00\n        /* \"#utility.yul\":1248:1254   */\n      dup3\n        /* \"#utility.yul\":1243:1246   */\n      dup3\n        /* \"#utility.yul\":1236:1255   */\n      mstore\n        /* \"#utility.yul\":1288:1292   */\n      0x20\n        /* \"#utility.yul\":1283:1286   */\n      dup3\n        /* \"#utility.yul\":1279:1293   */\n      add\n        /* \"#utility.yul\":1264:1293   */\n      swap1\n      pop\n        /* \"#utility.yul\":1130:1299   */\n      swap3\n      swap2\n      pop\n      pop\n      jump\t// out\n        /* \"#utility.yul\":1305:1444   */\n    tag_80:\n        /* \"#utility.yul\":1394:1400   */\n      dup3\n        /* \"#utility.yul\":1389:1392   */\n      dup2\n        /* \"#utility.yul\":1384:1387   */\n      dup4\n        /* \"#utility.yul\":1378:1401   */\n      mcopy\n        /* \"#utility.yul\":1435:1436   */\n      0x00\n        /* \"#utility.yul\":1426:1432   */\n      dup4\n        /* \"#utility.yul\":1421:1424   */\n      dup4\n        /* \"#utility.yul\":1417:1433   */\n      add\n        /* \"#utility.yul\":1410:1437   */\n      mstore\n        /* \"#utility.yul\":1305:1444   */\n      pop\n      pop\n      pop\n      jump\t// out\n        /* \"#utility.yul\":1450:1552   */\n    tag_81:\n        /* \"#utility.yul\":1491:1497   */\n      0x00\n        /* \"#utility.yul\":1542:1544   */\n      0x1f\n        /* \"#utility.yul\":1538:1545   */\n      not\n        /* \"#utility.yul\":1533:1535   */\n      0x1f\n        /* \"#utility.yul\":1526:1531   */\n      dup4\n        /* \"#utility.yul\":1522:1536   */\n      add\n        /* \"#utility.yul\":1518:1546   */\n      and\n        /* \"#utility.yul\":1508:1546   */\n      swap1\n      pop\n        /* \"#utility.yul\":1450:1552   */\n      swap2\n      swap1\n      pop\n      jump\t// out\n        /* \"#utility.yul\":1558:1935   */\n    tag_82:\n        /* \"#utility.yul\":1646:1649   */\n      0x00\n        /* \"#utility.yul\":1674:1713   */\n      tag_131\n        /* \"#utility.yul\":1707:1712   */\n      dup3\n        /* \"#utility.yul\":1674:1713   */\n      tag_78\n      jump\t// in\n    tag_131:\n        /* \"#utility.yul\":1729:1800   */\n      tag_132\n        /* \"#utility.yul\":1793:1799   */\n      dup2\n        /* \"#utility.yul\":1788:1791   */\n      dup6\n        /* \"#utility.yul\":1729:1800   */\n      tag_79\n      jump\t// in\n    tag_132:\n        /* \"#utility.yul\":1722:1800   */\n      swap4\n      pop\n        /* \"#utility.yul\":1809:1874   */\n      tag_133\n        /* \"#utility.yul\":1867:1873   */\n      dup2\n        /* \"#utility.yul\":1862:1865   */\n      dup6\n        /* \"#utility.yul\":1855:1859   */\n      0x20\n        /* \"#utility.yul\":1848:1853   */\n      dup7\n        /* \"#utility.yul\":1844:1860   */\n      add\n        /* \"#utility.yul\":1809:1874   */\n      tag_80\n      jump\t// in\n    tag_133:\n        /* \"#utility.yul\":1899:1928   */\n      tag_134\n        /* \"#utility.yul\":1921:1927   */\n      dup2\n        /* \"#utility.yul\":1899:1928   */\n      tag_81\n      jump\t// in\n    tag_134:\n        /* \"#utility.yul\":1894:1897   */\n      dup5\n        /* \"#utility.yul\":1890:1929   */\n      add\n        /* \"#utility.yul\":1883:1929   */\n      swap2\n      pop\n        /* \"#utility.yul\":1650:1935   */\n      pop\n        /* \"#utility.yul\":1558:1935   */\n      swap3\n      swap2\n      pop\n      pop\n      jump\t// out\n        /* \"#utility.yul\":1941:2031   */\n    tag_83:\n        /* \"#utility.yul\":1975:1982   */\n      0x00\n        /* \"#utility.yul\":2018:2023   */\n      dup2\n        /* \"#utility.yul\":2011:2024   */\n      iszero\n        /* \"#utility.yul\":2004:2025   */\n      iszero\n        /* \"#utility.yul\":1993:2025   */\n      swap1\n      pop\n        /* \"#utility.yul\":1941:2031   */\n      swap2\n      swap1\n      pop\n      jump\t// out\n        /* \"#utility.yul\":2037:2146   */\n    tag_84:\n        /* \"#utility.yul\":2118:2139   */\n      tag_137\n        /* \"#utility.yul\":2133:2138   */\n      dup2\n        /* \"#utility.yul\":2118:2139   */\n      tag_83\n      jump\t// in\n    tag_137:\n        /* \"#utility.yul\":2113:2116   */\n      dup3\n        /* \"#utility.yul\":2106:2140   */\n      mstore\n        /* \"#utility.yul\":2037:2146   */\n      pop\n      pop\n      jump\t// out\n        /* \"#utility.yul\":2152:2563   */\n    tag_14:\n        /* \"#utility.yul\":2287:2291   */\n      0x00\n        /* \"#utility.yul\":2325:2327   */\n      0x40\n        /* \"#utility.yul\":2314:2323   */\n      dup3\n        /* \"#utility.yul\":2310:2328   */\n      add\n        /* \"#utility.yul\":2302:2328   */\n      swap1\n      pop\n        /* \"#utility.yul\":2374:2383   */\n      dup2\n        /* \"#utility.yul\":2368:2372   */\n      dup2\n        /* \"#utility.yul\":2364:2384   */\n      sub\n        /* \"#utility.yul\":2360:2361   */\n      0x00\n        /* \"#utility.yul\":2349:2358   */\n      dup4\n        /* \"#utility.yul\":2345:2362   */\n      add\n        /* \"#utility.yul\":2338:2385   */\n      mstore\n        /* \"#utility.yul\":2402:2480   */\n      tag_139\n        /* \"#utility.yul\":2475:2479   */\n      dup2\n        /* \"#utility.yul\":2466:2472   */\n      dup6\n        /* \"#utility.yul\":2402:2480   */\n      tag_82\n      jump\t// in\n    tag_139:\n        /* \"#utility.yul\":2394:2480   */\n      swap1\n      pop\n        /* \"#utility.yul\":2490:2556   */\n      tag_140\n        /* \"#utility.yul\":2552:2554   */\n      0x20\n        /* \"#utility.yul\":2541:2550   */\n      dup4\n        /* \"#utility.yul\":2537:2555   */\n      add\n        /* \"#utility.yul\":2528:2534   */\n      dup5\n        /* \"#utility.yul\":2490:2556   */\n      tag_84\n      jump\t// in\n    tag_140:\n        /* \"#utility.yul\":2152:2563   */\n      swap4\n      swap3\n      pop\n      pop\n      pop\n      jump\t// out\n        /* \"#utility.yul\":2569:2686   */\n    tag_85:\n        /* \"#utility.yul\":2678:2679   */\n      0x00\n        /* \"#utility.yul\":2675:2676   */\n      dup1\n        /* \"#utility.yul\":2668:2680   */\n      revert\n        /* \"#utility.yul\":2692:2809   */\n    tag_86:\n        /* \"#utility.yul\":2801:2802   */\n      0x00\n        /* \"#utility.yul\":2798:2799   */\n      dup1\n        /* \"#utility.yul\":2791:2803   */\n      revert\n        /* \"#utility.yul\":2815:2995   */\n    tag_87:\n        /* \"#utility.yul\":2863:2940   */\n      0x4e487b7100000000000000000000000000000000000000000000000000000000\n        /* \"#utility.yul\":2860:2861   */\n      0x00\n        /* \"#utility.yul\":2853:2941   */\n      mstore\n        /* \"#utility.yul\":2960:2964   */\n      0x41\n        /* \"#utility.yul\":2957:2958   */\n      0x04\n        /* \"#utility.yul\":2950:2965   */\n      mstore\n        /* \"#utility.yul\":2984:2988   */\n      0x24\n        /* \"#utility.yul\":2981:2982   */\n      0x00\n        /* \"#utility.yul\":2974:2989   */\n      revert\n        /* \"#utility.yul\":3001:3282   */\n    tag_88:\n        /* \"#utility.yul\":3084:3111   */\n      tag_145\n        /* \"#utility.yul\":3106:3110   */\n      dup3\n        /* \"#utility.yul\":3084:3111   */\n      tag_81\n      jump\t// in\n    tag_145:\n        /* \"#utility.yul\":3076:3082   */\n      dup2\n        /* \"#utility.yul\":3072:3112   */\n      add\n        /* \"#utility.yul\":3214:3220   */\n      dup2\n        /* \"#utility.yul\":3202:3212   */\n      dup2\n        /* \"#utility.yul\":3199:3221   */\n      lt\n        /* \"#utility.yul\":3178:3196   */\n      0xffffffffffffffff\n        /* \"#utility.yul\":3166:3176   */\n      dup3\n        /* \"#utility.yul\":3163:3197   */\n      gt\n        /* \"#utility.yul\":3160:3222   */\n      or\n        /* \"#utility.yul\":3157:3245   */\n      iszero\n      tag_146\n      jumpi\n        /* \"#utility.yul\":3225:3243   */\n      tag_147\n      tag_87\n      jump\t// in\n    tag_147:\n        /* \"#utility.yul\":3157:3245   */\n    tag_146:\n        /* \"#utility.yul\":3265:3275   */\n      dup1\n        /* \"#utility.yul\":3261:3263   */\n      0x40\n        /* \"#utility.yul\":3254:3276   */\n      mstore\n        /* \"#utility.yul\":3044:3282   */\n      pop\n        /* \"#utility.yul\":3001:3282   */\n      pop\n      pop\n      jump\t// out\n        /* \"#utility.yul\":3288:3417   */\n    tag_89:\n        /* \"#utility.yul\":3322:3328   */\n      0x00\n        /* \"#utility.yul\":3349:3369   */\n      tag_149\n      tag_72\n      jump\t// in\n    tag_149:\n        /* \"#utility.yul\":3339:3369   */\n      swap1\n      pop\n        /* \"#utility.yul\":3378:3411   */\n      tag_150\n        /* \"#utility.yul\":3406:3410   */\n      dup3\n        /* \"#utility.yul\":3398:3404   */\n      dup3\n        /* \"#utility.yul\":3378:3411   */\n      tag_88\n      jump\t// in\n    tag_150:\n        /* \"#utility.yul\":3288:3417   */\n      swap2\n      swap1\n      pop\n      jump\t// out\n        /* \"#utility.yul\":3423:3731   */\n    tag_90:\n        /* \"#utility.yul\":3485:3489   */\n      0x00\n        /* \"#utility.yul\":3575:3593   */\n      0xffffffffffffffff\n        /* \"#utility.yul\":3567:3573   */\n      dup3\n        /* \"#utility.yul\":3564:3594   */\n      gt\n        /* \"#utility.yul\":3561:3617   */\n      iszero\n      tag_152\n      jumpi\n        /* \"#utility.yul\":3597:3615   */\n      tag_153\n      tag_87\n      jump\t// in\n    tag_153:\n        /* \"#utility.yul\":3561:3617   */\n    tag_152:\n        /* \"#utility.yul\":3635:3664   */\n      tag_154\n        /* \"#utility.yul\":3657:3663   */\n      dup3\n        /* \"#utility.yul\":3635:3664   */\n      tag_81\n      jump\t// in\n    tag_154:\n        /* \"#utility.yul\":3627:3664   */\n      swap1\n      pop\n        /* \"#utility.yul\":3719:3723   */\n      0x20\n        /* \"#utility.yul\":3713:3717   */\n      dup2\n        /* \"#utility.yul\":3709:3724   */\n      add\n        /* \"#utility.yul\":3701:3724   */\n      swap1\n      pop\n        /* \"#utility.yul\":3423:3731   */\n      swap2\n      swap1\n      pop\n      jump\t// out\n        /* \"#utility.yul\":3737:3885   */\n    tag_91:\n        /* \"#utility.yul\":3835:3841   */\n      dup3\n        /* \"#utility.yul\":3830:3833   */\n      dup2\n        /* \"#utility.yul\":3825:3828   */\n      dup4\n        /* \"#utility.yul\":3812:3842   */\n      calldatacopy\n        /* \"#utility.yul\":3876:3877   */\n      0x00\n        /* \"#utility.yul\":3867:3873   */\n      dup4\n        /* \"#utility.yul\":3862:3865   */\n      dup4\n        /* \"#utility.yul\":3858:3874   */\n      add\n        /* \"#utility.yul\":3851:3878   */\n      mstore\n        /* \"#utility.yul\":3737:3885   */\n      pop\n      pop\n      pop\n      jump\t// out\n        /* \"#utility.yul\":3891:4316   */\n    tag_92:\n        /* \"#utility.yul\":3969:3974   */\n      0x00\n        /* \"#utility.yul\":3994:4060   */\n      tag_157\n        /* \"#utility.yul\":4010:4059   */\n      tag_158\n        /* \"#utility.yul\":4052:4058   */\n      dup5\n        /* \"#utility.yul\":4010:4059   */\n      tag_90\n      jump\t// in\n    tag_158:\n        /* \"#utility.yul\":3994:4060   */\n      tag_89\n      jump\t// in\n    tag_157:\n        /* \"#utility.yul\":3985:4060   */\n      swap1\n      pop\n        /* \"#utility.yul\":4083:4089   */\n      dup3\n        /* \"#utility.yul\":4076:4081   */\n      dup2\n        /* \"#utility.yul\":4069:4090   */\n      mstore\n        /* \"#utility.yul\":4121:4125   */\n      0x20\n        /* \"#utility.yul\":4114:4119   */\n      dup2\n        /* \"#utility.yul\":4110:4126   */\n      add\n        /* \"#utility.yul\":4159:4162   */\n      dup5\n        /* \"#utility.yul\":4150:4156   */\n      dup5\n        /* \"#utility.yul\":4145:4148   */\n      dup5\n        /* \"#utility.yul\":4141:4157   */\n      add\n        /* \"#utility.yul\":4138:4163   */\n      gt\n        /* \"#utility.yul\":4135:4247   */\n      iszero\n      tag_159\n      jumpi\n        /* \"#utility.yul\":4166:4245   */\n      tag_160\n      tag_86\n      jump\t// in\n    tag_160:\n        /* \"#utility.yul\":4135:4247   */\n    tag_159:\n        /* \"#utility.yul\":4256:4310   */\n      tag_161\n        /* \"#utility.yul\":4303:4309   */\n      dup5\n        /* \"#utility.yul\":4298:4301   */\n      dup3\n        /* \"#utility.yul\":4293:4296   */\n      dup6\n        /* \"#utility.yul\":4256:4310   */\n      tag_91\n      jump\t// in\n    tag_161:\n        /* \"#utility.yul\":3975:4316   */\n      pop\n        /* \"#utility.yul\":3891:4316   */\n      swap4\n      swap3\n      pop\n      pop\n      pop\n      jump\t// out\n        /* \"#utility.yul\":4336:4676   */\n    tag_93:\n        /* \"#utility.yul\":4392:4397   */\n      0x00\n        /* \"#utility.yul\":4441:4444   */\n      dup3\n        /* \"#utility.yul\":4434:4438   */\n      0x1f\n        /* \"#utility.yul\":4426:4432   */\n      dup4\n        /* \"#utility.yul\":4422:4439   */\n      add\n        /* \"#utility.yul\":4418:4445   */\n      slt\n        /* \"#utility.yul\":4408:4530   */\n      tag_163\n      jumpi\n        /* \"#utility.yul\":4449:4528   */\n      tag_164\n      tag_85\n      jump\t// in\n    tag_164:\n        /* \"#utility.yul\":4408:4530   */\n    tag_163:\n        /* \"#utility.yul\":4566:4572   */\n      dup2\n        /* \"#utility.yul\":4553:4573   */\n      calldataload\n        /* \"#utility.yul\":4591:4670   */\n      tag_165\n        /* \"#utility.yul\":4666:4669   */\n      dup5\n        /* \"#utility.yul\":4658:4664   */\n      dup3\n        /* \"#utility.yul\":4651:4655   */\n      0x20\n        /* \"#utility.yul\":4643:4649   */\n      dup7\n        /* \"#utility.yul\":4639:4656   */\n      add\n        /* \"#utility.yul\":4591:4670   */\n      tag_92\n      jump\t// in\n    tag_165:\n        /* \"#utility.yul\":4582:4670   */\n      swap2\n      pop\n        /* \"#utility.yul\":4398:4676   */\n      pop\n        /* \"#utility.yul\":4336:4676   */\n      swap3\n      swap2\n      pop\n      pop\n      jump\t// out\n        /* \"#utility.yul\":4682:5191   */\n    tag_20:\n        /* \"#utility.yul\":4751:4757   */\n      0x00\n        /* \"#utility.yul\":4800:4802   */\n      0x20\n        /* \"#utility.yul\":4788:4797   */\n      dup3\n        /* \"#utility.yul\":4779:4786   */\n      dup5\n        /* \"#utility.yul\":4775:4798   */\n      sub\n        /* \"#utility.yul\":4771:4803   */\n      slt\n        /* \"#utility.yul\":4768:4887   */\n      iszero\n      tag_167\n      jumpi\n        /* \"#utility.yul\":4806:4885   */\n      tag_168\n      tag_73\n      jump\t// in\n    tag_168:\n        /* \"#utility.yul\":4768:4887   */\n    tag_167:\n        /* \"#utility.yul\":4954:4955   */\n      0x00\n        /* \"#utility.yul\":4943:4952   */\n      dup3\n        /* \"#utility.yul\":4939:4956   */\n      add\n        /* \"#utility.yul\":4926:4957   */\n      calldataload\n        /* \"#utility.yul\":4984:5002   */\n      0xffffffffffffffff\n        /* \"#utility.yul\":4976:4982   */\n      dup2\n        /* \"#utility.yul\":4973:5003   */\n      gt\n        /* \"#utility.yul\":4970:5087   */\n      iszero\n      tag_169\n      jumpi\n        /* \"#utility.yul\":5006:5085   */\n      tag_170\n      tag_74\n      jump\t// in\n    tag_170:\n        /* \"#utility.yul\":4970:5087   */\n    tag_169:\n        /* \"#utility.yul\":5111:5174   */\n      tag_171\n        /* \"#utility.yul\":5166:5173   */\n      dup5\n        /* \"#utility.yul\":5157:5163   */\n      dup3\n        /* \"#utility.yul\":5146:5155   */\n      dup6\n        /* \"#utility.yul\":5142:5164   */\n      add\n        /* \"#utility.yul\":5111:5174   */\n      tag_93\n      jump\t// in\n    tag_171:\n        /* \"#utility.yul\":5101:5174   */\n      swap2\n      pop\n        /* \"#utility.yul\":4897:5184   */\n      pop\n        /* \"#utility.yul\":4682:5191   */\n      swap3\n      swap2\n      pop\n      pop\n      jump\t// out\n        /* \"#utility.yul\":5197:5313   */\n    tag_94:\n        /* \"#utility.yul\":5267:5288   */\n      tag_173\n        /* \"#utility.yul\":5282:5287   */\n      dup2\n        /* \"#utility.yul\":5267:5288   */\n      tag_83\n      jump\t// in\n    tag_173:\n        /* \"#utility.yul\":5260:5265   */\n      dup2\n        /* \"#utility.yul\":5257:5289   */\n      eq\n        /* \"#utility.yul\":5247:5307   */\n      tag_174\n      jumpi\n        /* \"#utility.yul\":5303:5304   */\n      0x00\n        /* \"#utility.yul\":5300:5301   */\n      dup1\n        /* \"#utility.yul\":5293:5305   */\n      revert\n        /* \"#utility.yul\":5247:5307   */\n    tag_174:\n        /* \"#utility.yul\":5197:5313   */\n      pop\n      jump\t// out\n        /* \"#utility.yul\":5319:5452   */\n    tag_95:\n        /* \"#utility.yul\":5362:5367   */\n      0x00\n        /* \"#utility.yul\":5400:5406   */\n      dup2\n        /* \"#utility.yul\":5387:5407   */\n      calldataload\n        /* \"#utility.yul\":5378:5407   */\n      swap1\n      pop\n        /* \"#utility.yul\":5416:5446   */\n      tag_176\n        /* \"#utility.yul\":5440:5445   */\n      dup2\n        /* \"#utility.yul\":5416:5446   */\n      tag_94\n      jump\t// in\n    tag_176:\n        /* \"#utility.yul\":5319:5452   */\n      swap3\n      swap2\n      pop\n      pop\n      jump\t// out\n        /* \"#utility.yul\":5458:5926   */\n    tag_28:\n        /* \"#utility.yul\":5523:5529   */\n      0x00\n        /* \"#utility.yul\":5531:5537   */\n      dup1\n        /* \"#utility.yul\":5580:5582   */\n      0x40\n        /* \"#utility.yul\":5568:5577   */\n      dup4\n        /* \"#utility.yul\":5559:5566   */\n      dup6\n        /* \"#utility.yul\":5555:5578   */\n      sub\n        /* \"#utility.yul\":5551:5583   */\n      slt\n        /* \"#utility.yul\":5548:5667   */\n      iszero\n      tag_178\n      jumpi\n        /* \"#utility.yul\":5586:5665   */\n      tag_179\n      tag_73\n      jump\t// in\n    tag_179:\n        /* \"#utility.yul\":5548:5667   */\n    tag_178:\n        /* \"#utility.yul\":5706:5707   */\n      0x00\n        /* \"#utility.yul\":5731:5784   */\n      tag_180\n        /* \"#utility.yul\":5776:5783   */\n      dup6\n        /* \"#utility.yul\":5767:5773   */\n      dup3\n        /* \"#utility.yul\":5756:5765   */\n      dup7\n        /* \"#utility.yul\":5752:5774   */\n      add\n        /* \"#utility.yul\":5731:5784   */\n      tag_77\n      jump\t// in\n    tag_180:\n        /* \"#utility.yul\":5721:5784   */\n      swap3\n      pop\n        /* \"#utility.yul\":5677:5794   */\n      pop\n        /* \"#utility.yul\":5833:5835   */\n      0x20\n        /* \"#utility.yul\":5859:5909   */\n      tag_181\n        /* \"#utility.yul\":5901:5908   */\n      dup6\n        /* \"#utility.yul\":5892:5898   */\n      dup3\n        /* \"#utility.yul\":5881:5890   */\n      dup7\n        /* \"#utility.yul\":5877:5899   */\n      add\n        /* \"#utility.yul\":5859:5909   */\n      tag_95\n      jump\t// in\n    tag_181:\n        /* \"#utility.yul\":5849:5909   */\n      swap2\n      pop\n        /* \"#utility.yul\":5804:5919   */\n      pop\n        /* \"#utility.yul\":5458:5926   */\n      swap3\n      pop\n      swap3\n      swap1\n      pop\n      jump\t// out\n        /* \"#utility.yul\":5932:6586   */\n    tag_32:\n        /* \"#utility.yul\":6010:6016   */\n      0x00\n        /* \"#utility.yul\":6018:6024   */\n      dup1\n        /* \"#utility.yul\":6067:6069   */\n      0x40\n        /* \"#utility.yul\":6055:6064   */\n      dup4\n        /* \"#utility.yul\":6046:6053   */\n      dup6\n        /* \"#utility.yul\":6042:6065   */\n      sub\n        /* \"#utility.yul\":6038:6070   */\n      slt\n        /* \"#utility.yul\":6035:6154   */\n      iszero\n      tag_183\n      jumpi\n        /* \"#utility.yul\":6073:6152   */\n      tag_184\n      tag_73\n      jump\t// in\n    tag_184:\n        /* \"#utility.yul\":6035:6154   */\n    tag_183:\n        /* \"#utility.yul\":6193:6194   */\n      0x00\n        /* \"#utility.yul\":6218:6271   */\n      tag_185\n        /* \"#utility.yul\":6263:6270   */\n      dup6\n        /* \"#utility.yul\":6254:6260   */\n      dup3\n        /* \"#utility.yul\":6243:6252   */\n      dup7\n        /* \"#utility.yul\":6239:6261   */\n      add\n        /* \"#utility.yul\":6218:6271   */\n      tag_77\n      jump\t// in\n    tag_185:\n        /* \"#utility.yul\":6208:6271   */\n      swap3\n      pop\n        /* \"#utility.yul\":6164:6281   */\n      pop\n        /* \"#utility.yul\":6348:6350   */\n      0x20\n        /* \"#utility.yul\":6337:6346   */\n      dup4\n        /* \"#utility.yul\":6333:6351   */\n      add\n        /* \"#utility.yul\":6320:6352   */\n      calldataload\n        /* \"#utility.yul\":6379:6397   */\n      0xffffffffffffffff\n        /* \"#utility.yul\":6371:6377   */\n      dup2\n        /* \"#utility.yul\":6368:6398   */\n      gt\n        /* \"#utility.yul\":6365:6482   */\n      iszero\n      tag_186\n      jumpi\n        /* \"#utility.yul\":6401:6480   */\n      tag_187\n      tag_74\n      jump\t// in\n    tag_187:\n        /* \"#utility.yul\":6365:6482   */\n    tag_186:\n        /* \"#utility.yul\":6506:6569   */\n      tag_188\n        /* \"#utility.yul\":6561:6568   */\n      dup6\n        /* \"#utility.yul\":6552:6558   */\n      dup3\n        /* \"#utility.yul\":6541:6550   */\n      dup7\n        /* \"#utility.yul\":6537:6559   */\n      add\n        /* \"#utility.yul\":6506:6569   */\n      tag_93\n      jump\t// in\n    tag_188:\n        /* \"#utility.yul\":6496:6569   */\n      swap2\n      pop\n        /* \"#utility.yul\":6291:6579   */\n      pop\n        /* \"#utility.yul\":5932:6586   */\n      swap3\n      pop\n      swap3\n      swap1\n      pop\n      jump\t// out\n        /* \"#utility.yul\":6592:6772   */\n    tag_37:\n        /* \"#utility.yul\":6640:6717   */\n      0x4e487b7100000000000000000000000000000000000000000000000000000000\n        /* \"#utility.yul\":6637:6638   */\n      0x00\n        /* \"#utility.yul\":6630:6718   */\n      mstore\n        /* \"#utility.yul\":6737:6741   */\n      0x32\n        /* \"#utility.yul\":6734:6735   */\n      0x04\n        /* \"#utility.yul\":6727:6742   */\n      mstore\n        /* \"#utility.yul\":6761:6765   */\n      0x24\n        /* \"#utility.yul\":6758:6759   */\n      0x00\n        /* \"#utility.yul\":6751:6766   */\n      revert\n        /* \"#utility.yul\":6778:6958   */\n    tag_96:\n        /* \"#utility.yul\":6826:6903   */\n      0x4e487b7100000000000000000000000000000000000000000000000000000000\n        /* \"#utility.yul\":6823:6824   */\n      0x00\n        /* \"#utility.yul\":6816:6904   */\n      mstore\n        /* \"#utility.yul\":6923:6927   */\n      0x22\n        /* \"#utility.yul\":6920:6921   */\n      0x04\n        /* \"#utility.yul\":6913:6928   */\n      mstore\n        /* \"#utility.yul\":6947:6951   */\n      0x24\n        /* \"#utility.yul\":6944:6945   */\n      0x00\n        /* \"#utility.yul\":6937:6952   */\n      revert\n        /* \"#utility.yul\":6964:7284   */\n    tag_40:\n        /* \"#utility.yul\":7008:7014   */\n      0x00\n        /* \"#utility.yul\":7045:7046   */\n      0x02\n        /* \"#utility.yul\":7039:7043   */\n      dup3\n        /* \"#utility.yul\":7035:7047   */\n      div\n        /* \"#utility.yul\":7025:7047   */\n      swap1\n      pop\n        /* \"#utility.yul\":7092:7093   */\n      0x01\n        /* \"#utility.yul\":7086:7090   */\n      dup3\n        /* \"#utility.yul\":7082:7094   */\n      and\n        /* \"#utility.yul\":7113:7131   */\n      dup1\n        /* \"#utility.yul\":7103:7184   */\n      tag_192\n      jumpi\n        /* \"#utility.yul\":7169:7173   */\n      0x7f\n        /* \"#utility.yul\":7161:7167   */\n      dup3\n        /* \"#utility.yul\":7157:7174   */\n      and\n        /* \"#utility.yul\":7147:7174   */\n      swap2\n      pop\n        /* \"#utility.yul\":7103:7184   */\n    tag_192:\n        /* \"#utility.yul\":7231:7233   */\n      0x20\n        /* \"#utility.yul\":7223:7229   */\n      dup3\n        /* \"#utility.yul\":7220:7234   */\n      lt\n        /* \"#utility.yul\":7200:7218   */\n      dup2\n        /* \"#utility.yul\":7197:7235   */\n      sub\n        /* \"#utility.yul\":7194:7278   */\n      tag_193\n      jumpi\n        /* \"#utility.yul\":7250:7268   */\n      tag_194\n      tag_96\n      jump\t// in\n    tag_194:\n        /* \"#utility.yul\":7194:7278   */\n    tag_193:\n        /* \"#utility.yul\":7015:7284   */\n      pop\n        /* \"#utility.yul\":6964:7284   */\n      swap2\n      swap1\n      pop\n      jump\t// out\n        /* \"#utility.yul\":7290:7431   */\n    tag_97:\n        /* \"#utility.yul\":7339:7343   */\n      0x00\n        /* \"#utility.yul\":7362:7365   */\n      dup2\n        /* \"#utility.yul\":7354:7365   */\n      swap1\n      pop\n        /* \"#utility.yul\":7385:7388   */\n      dup2\n        /* \"#utility.yul\":7382:7383   */\n      0x00\n        /* \"#utility.yul\":7375:7389   */\n      mstore\n        /* \"#utility.yul\":7419:7423   */\n      0x20\n        /* \"#utility.yul\":7416:7417   */\n      0x00\n        /* \"#utility.yul\":7406:7424   */\n      keccak256\n        /* \"#utility.yul\":7398:7424   */\n      swap1\n      pop\n        /* \"#utility.yul\":7290:7431   */\n      swap2\n      swap1\n      pop\n      jump\t// out\n        /* \"#utility.yul\":7437:7530   */\n    tag_98:\n        /* \"#utility.yul\":7474:7480   */\n      0x00\n        /* \"#utility.yul\":7521:7523   */\n      0x20\n        /* \"#utility.yul\":7516:7518   */\n      0x1f\n        /* \"#utility.yul\":7509:7514   */\n      dup4\n        /* \"#utility.yul\":7505:7519   */\n      add\n        /* \"#utility.yul\":7501:7524   */\n      div\n        /* \"#utility.yul\":7491:7524   */\n      swap1\n      pop\n        /* \"#utility.yul\":7437:7530   */\n      swap2\n      swap1\n      pop\n      jump\t// out\n        /* \"#utility.yul\":7536:7643   */\n    tag_99:\n        /* \"#utility.yul\":7580:7588   */\n      0x00\n        /* \"#utility.yul\":7630:7635   */\n      dup3\n        /* \"#utility.yul\":7624:7628   */\n      dup3\n        /* \"#utility.yul\":7620:7636   */\n      shl\n        /* \"#utility.yul\":7599:7636   */\n      swap1\n      pop\n        /* \"#utility.yul\":7536:7643   */\n      swap3\n      swap2\n      pop\n      pop\n      jump\t// out\n        /* \"#utility.yul\":7649:8042   */\n    tag_100:\n        /* \"#utility.yul\":7718:7724   */\n      0x00\n        /* \"#utility.yul\":7768:7769   */\n      0x08\n        /* \"#utility.yul\":7756:7766   */\n      dup4\n        /* \"#utility.yul\":7752:7770   */\n      mul\n        /* \"#utility.yul\":7791:7888   */\n      tag_199\n        /* \"#utility.yul\":7821:7887   */\n      0xffffffffffffffffffffffffffffffffffffffffffffffffffffffffffffffff\n        /* \"#utility.yul\":7810:7819   */\n      dup3\n        /* \"#utility.yul\":7791:7888   */\n      tag_99\n      jump\t// in\n    tag_199:\n        /* \"#utility.yul\":7909:7948   */\n      tag_200\n        /* \"#utility.yul\":7939:7947   */\n      dup7\n        /* \"#utility.yul\":7928:7937   */\n      dup4\n        /* \"#utility.yul\":7909:7948   */\n      tag_99\n      jump\t// in\n    tag_200:\n        /* \"#utility.yul\":7897:7948   */\n      swap6\n      pop\n        /* \"#utility.yul\":7981:7985   */\n      dup1\n        /* \"#utility.yul\":7977:7986   */\n      not\n        /* \"#utility.yul\":7970:7975   */\n      dup5\n        /* \"#utility.yul\":7966:7987   */\n      and\n        /* \"#utility.yul\":7957:7987   */\n      swap4\n      pop\n        /* \"#utility.yul\":8030:8034   */\n      dup1\n        /* \"#utility.yul\":8020:8028   */\n      dup7\n        /* \"#utility.yul\":8016:8035   */\n      and\n        /* \"#utility.yul\":8009:8014   */\n      dup5\n        /* \"#utility.yul\":8006:8036   */\n      or\n        /* \"#utility.yul\":7996:8036   */\n      swap3\n      pop\n        /* \"#utility.yul\":7725:8042   */\n      pop\n      pop\n        /* \"#utility.yul\":7649:8042   */\n      swap4\n      swap3\n      pop\n      pop\n      pop\n      jump\t// out\n        /* \"#utility.yul\":8048:8108   */\n    tag_101:\n        /* \"#utility.yul\":8076:8079   */\n      0x00\n        /* \"#utility.yul\":8097:8102   */\n      dup2\n        /* \"#utility.yul\":8090:8102   */\n      swap1\n      pop\n        /* \"#utility.yul\":8048:8108   */\n      swap2\n      swap1\n      pop\n      jump\t// out\n        /* \"#utility.yul\":8114:8256   */\n    tag_102:\n        /* \"#utility.yul\":8164:8173   */\n      0x00\n        /* \"#utility.yul\":8197:8250   */\n      tag_203\n        /* \"#utility.yul\":8215:8249   */\n      tag_204\n        /* \"#utility.yul\":8224:8248   */\n      tag_205\n        /* \"#utility.yul\":8242:8247   */\n      dup5\n        /* \"#utility.yul\":8224:8248   */\n      tag_75\n      jump\t// in\n    tag_205:\n        /* \"#utility.yul\":8215:8249   */\n      tag_101\n      jump\t// in\n    tag_204:\n        /* \"#utility.yul\":8197:8250   */\n      tag_75\n      jump\t// in\n    tag_203:\n        /* \"#utility.yul\":8184:8250   */\n      swap1\n      pop\n        /* \"#utility.yul\":8114:8256   */\n      swap2\n      swap1\n      pop\n      jump\t// out\n        /* \"#utility.yul\":8262:8337   */\n    tag_103:\n        /* \"#utility.yul\":8305:8308   */\n      0x00\n        /* \"#utility.yul\":8326:8331   */\n      dup2\n        /* \"#utility.yul\":8319:8331   */\n      swap1\n      pop\n        /* \"#utility.yul\":8262:8337   */\n      swap2\n      swap1\n      pop\n      jump\t// out\n        /* \"#utility.yul\":8343:8612   */\n    tag_104:\n        /* \"#utility.yul\":8453:8492   */\n      tag_208\n        /* \"#utility.yul\":8484:8491   */\n      dup4\n        /* \"#utility.yul\":8453:8492   */\n      tag_102\n      jump\t// in\n    tag_208:\n        /* \"#utility.yul\":8514:8605   */\n      tag_209\n        /* \"#utility.yul\":8563:8604   */\n      tag_210\n        /* \"#utility.yul\":8587:8603   */\n      dup3\n        /* \"#utility.yul\":8563:8604   */\n      tag_103\n      jump\t// in\n    tag_210:\n        /* \"#utility.yul\":8555:8561   */\n      dup5\n        /* \"#utility.yul\":8548:8552   */\n      dup5\n        /* \"#utility.yul\":8542:8553   */\n      sload\n        /* \"#utility.yul\":8514:8605   */\n      tag_100\n      jump\t// in\n    tag_209:\n        /* \"#utility.yul\":8508:8512   */\n      dup3\n        /* \"#utility.yul\":8501:8606   */\n      sstore\n        /* \"#utility.yul\":8419:8612   */\n      pop\n        /* \"#utility.yul\":8343:8612   */\n      pop\n      pop\n      pop\n      jump\t// out\n        /* \"#utility.yul\":8618:8691   */\n    tag_105:\n        /* \"#utility.yul\":8663:8666   */\n      0x00\n        /* \"#utility.yul\":8618:8691   */\n      swap1\n      jump\t// out\n        /* \"#utility.yul\":8697:8886   */\n    tag_106:\n        /* \"#utility.yul\":8774:8806   */\n      tag_213\n      tag_105\n      jump\t// in\n    tag_213:\n        /* \"#utility.yul\":8815:8880   */\n      tag_214\n        /* \"#utility.yul\":8873:8879   */\n      dup2\n        /* \"#utility.yul\":8865:8871   */\n      dup5\n        /* \"#utility.yul\":8859:8863   */\n      dup5\n        /* \"#utility.yul\":8815:8880   */\n      tag_104\n      jump\t// in\n    tag_214:\n        /* \"#utility.yul\":8750:8886   */\n      pop\n        /* \"#utility.yul\":8697:8886   */\n      pop\n      pop\n      jump\t// out\n        /* \"#utility.yul\":8892:9078   */\n    tag_107:\n        /* \"#utility.yul\":8952:9072   */\n    tag_216:\n        /* \"#utility.yul\":8969:8972   */\n      dup2\n        /* \"#utility.yul\":8962:8967   */\n      dup2\n        /* \"#utility.yul\":8959:8973   */\n      lt\n        /* \"#utility.yul\":8952:9072   */\n      iszero\n      tag_218\n      jumpi\n        /* \"#utility.yul\":9023:9062   */\n      tag_219\n        /* \"#utility.yul\":9060:9061   */\n      0x00\n        /* \"#utility.yul\":9053:9058   */\n      dup3\n        /* \"#utility.yul\":9023:9062   */\n      tag_106\n      jump\t// in\n    tag_219:\n        /* \"#utility.yul\":8996:8997   */\n      0x01\n        /* \"#utility.yul\":8989:8994   */\n      dup2\n        /* \"#utility.yul\":8985:8998   */\n      add\n        /* \"#utility.yul\":8976:8998   */\n      swap1\n      pop\n        /* \"#utility.yul\":8952:9072   */\n      jump(tag_216)\n    tag_218:\n        /* \"#utility.yul\":8892:9078   */\n      pop\n      pop\n      jump\t// out\n        /* \"#utility.yul\":9084:9627   */\n    tag_108:\n        /* \"#utility.yul\":9185:9187   */\n      0x1f\n        /* \"#utility.yul\":9180:9183   */\n      dup3\n        /* \"#utility.yul\":9177:9188   */\n      gt\n        /* \"#utility.yul\":9174:9620   */\n      iszero\n      tag_221\n      jumpi\n        /* \"#utility.yul\":9219:9257   */\n      tag_222\n        /* \"#utility.yul\":9251:9256   */\n      dup2\n        /* \"#utility.yul\":9219:9257   */\n      tag_97\n      jump\t// in\n    tag_222:\n        /* \"#utility.yul\":9303:9332   */\n      tag_223\n        /* \"#utility.yul\":9321:9331   */\n      dup5\n        /* \"#utility.yul\":9303:9332   */\n      tag_98\n      jump\t// in\n    tag_223:\n        /* \"#utility.yul\":9293:9301   */\n      dup2\n        /* \"#utility.yul\":9289:9333   */\n      add\n        /* \"#utility.yul\":9486:9488   */\n      0x20\n        /* \"#utility.yul\":9474:9484   */\n      dup6\n        /* \"#utility.yul\":9471:9489   */\n      lt\n        /* \"#utility.yul\":9468:9517   */\n      iszero\n      tag_224\n      jumpi\n        /* \"#utility.yul\":9507:9515   */\n      dup2\n        /* \"#utility.yul\":9492:9515   */\n      swap1\n      pop\n        /* \"#utility.yul\":9468:9517   */\n    tag_224:\n        /* \"#utility.yul\":9530:9610   */\n      tag_225\n        /* \"#utility.yul\":9586:9608   */\n      tag_226\n        /* \"#utility.yul\":9604:9607   */\n      dup6\n        /* \"#utility.yul\":9586:9608   */\n      tag_98\n      jump\t// in\n    tag_226:\n        /* \"#utility.yul\":9576:9584   */\n      dup4\n        /* \"#utility.yul\":9572:9609   */\n      add\n        /* \"#utility.yul\":9559:9570   */\n      dup3\n        /* \"#utility.yul\":9530:9610   */\n      tag_107\n      jump\t// in\n    tag_225:\n        /* \"#utility.yul\":9189:9620   */\n      pop\n      pop\n        /* \"#utility.yul\":9174:9620   */\n    tag_221:\n        /* \"#utility.yul\":9084:9627   */\n      pop\n      pop\n      pop\n      jump\t// out\n        /* \"#utility.yul\":9633:9750   */\n    tag_109:\n        /* \"#utility.yul\":9687:9695   */\n      0x00\n        /* \"#utility.yul\":9737:9742   */\n      dup3\n        /* \"#utility.yul\":9731:9735   */\n      dup3\n        /* \"#utility.yul\":9727:9743   */\n      shr\n        /* \"#utility.yul\":9706:9743   */\n      swap1\n      pop\n        /* \"#utility.yul\":9633:9750   */\n      swap3\n      swap2\n      pop\n      pop\n      jump\t// out\n        /* \"#utility.yul\":9756:9925   */\n    tag_110:\n        /* \"#utility.yul\":9800:9806   */\n      0x00\n        /* \"#utility.yul\":9833:9884   */\n      tag_229\n        /* \"#utility.yul\":9881:9882   */\n      0x00\n        /* \"#utility.yul\":9877:9883   */\n      not\n        /* \"#utility.yul\":9869:9874   */\n      dup5\n        /* \"#utility.yul\":9866:9867   */\n      0x08\n        /* \"#utility.yul\":9862:9875   */\n      mul\n        /* \"#utility.yul\":9833:9884   */\n      tag_109\n      jump\t// in\n    tag_229:\n        /* \"#utility.yul\":9829:9885   */\n      not\n        /* \"#utility.yul\":9914:9918   */\n      dup1\n        /* \"#utility.yul\":9908:9912   */\n      dup4\n        /* \"#utility.yul\":9904:9919   */\n      and\n        /* \"#utility.yul\":9894:9919   */\n      swap2\n      pop\n        /* \"#utility.yul\":9807:9925   */\n      pop\n        /* \"#utility.yul\":9756:9925   */\n      swap3\n      swap2\n      pop\n      pop\n      jump\t// out\n        /* \"#utility.yul\":9930:10225   */\n    tag_111:\n        /* \"#utility.yul\":10006:10010   */\n      0x00\n        /* \"#utility.yul\":10152:10181   */\n      tag_231\n        /* \"#utility.yul\":10177:10180   */\n      dup4\n        /* \"#utility.yul\":10171:10175   */\n      dup4\n        /* \"#utility.yul\":10152:10181   */\n      tag_110\n      jump\t// in\n    tag_231:\n        /* \"#utility.yul\":10144:10181   */\n      swap2\n      pop\n        /* \"#utility.yul\":10214:10217   */\n      dup3\n        /* \"#utility.yul\":10211:10212   */\n      0x02\n        /* \"#utility.yul\":10207:10218   */\n      mul\n        /* \"#utility.yul\":10201:10205   */\n      dup3\n        /* \"#utility.yul\":10198:10219   */\n      or\n        /* \"#utility.yul\":10190:10219   */\n      swap1\n      pop\n        /* \"#utility.yul\":9930:10225   */\n      swap3\n      swap2\n      pop\n      pop\n      jump\t// out\n        /* \"#utility.yul\":10230:11625   */\n    tag_55:\n        /* \"#utility.yul\":10347:10384   */\n      tag_233\n        /* \"#utility.yul\":10380:10383   */\n      dup3\n        /* \"#utility.yul\":10347:10384   */\n      tag_78\n      jump\t// in\n    tag_233:\n        /* \"#utility.yul\":10449:10467   */\n      0xffffffffffffffff\n        /* \"#utility.yul\":10441:10447   */\n      dup2\n        /* \"#utility.yul\":10438:10468   */\n      gt\n        /* \"#utility.yul\":10435:10491   */\n      iszero\n      tag_234\n      jumpi\n        /* \"#utility.yul\":10471:10489   */\n      tag_235\n      tag_87\n      jump\t// in\n    tag_235:\n        /* \"#utility.yul\":10435:10491   */\n    tag_234:\n        /* \"#utility.yul\":10515:10553   */\n      tag_236\n        /* \"#utility.yul\":10547:10551   */\n      dup3\n        /* \"#utility.yul\":10541:10552   */\n      sload\n        /* \"#utility.yul\":10515:10553   */\n      tag_40\n      jump\t// in\n    tag_236:\n        /* \"#utility.yul\":10600:10667   */\n      tag_237\n        /* \"#utility.yul\":10660:10666   */\n      dup3\n        /* \"#utility.yul\":10652:10658   */\n      dup3\n        /* \"#utility.yul\":10646:10650   */\n      dup6\n        /* \"#utility.yul\":10600:10667   */\n      tag_108\n      jump\t// in\n    tag_237:\n        /* \"#utility.yul\":10694:10695   */\n      0x00\n        /* \"#utility.yul\":10718:10722   */\n      0x20\n        /* \"#utility.yul\":10705:10722   */\n      swap1\n      pop\n        /* \"#utility.yul\":10750:10752   */\n      0x1f\n        /* \"#utility.yul\":10742:10748   */\n      dup4\n        /* \"#utility.yul\":10739:10753   */\n      gt\n        /* \"#utility.yul\":10767:10768   */\n      0x01\n        /* \"#utility.yul\":10762:11380   */\n      dup2\n      eq\n      tag_239\n      jumpi\n        /* \"#utility.yul\":11424:11425   */\n      0x00\n        /* \"#utility.yul\":11441:11447   */\n      dup5\n        /* \"#utility.yul\":11438:11515   */\n      iszero\n      tag_240\n      jumpi\n        /* \"#utility.yul\":11490:11499   */\n      dup3\n        /* \"#utility.yul\":11485:11488   */\n      dup8\n        /* \"#utility.yul\":11481:11500   */\n      add\n        /* \"#utility.yul\":11475:11501   */\n      mload\n        /* \"#utility.yul\":11466:11501   */\n      swap1\n      pop\n        /* \"#utility.yul\":11438:11515   */\n    tag_240:\n        /* \"#utility.yul\":11541:11608   */\n      tag_241\n        /* \"#utility.yul\":11601:11607   */\n      dup6\n        /* \"#utility.yul\":11594:11599   */\n      dup3\n        /* \"#utility.yul\":11541:11608   */\n      tag_111\n      jump\t// in\n    tag_241:\n        /* \"#utility.yul\":11535:11539   */\n      dup7\n        /* \"#utility.yul\":11528:11609   */\n      sstore\n        /* \"#utility.yul\":11397:11619   */\n      pop\n        /* \"#utility.yul\":10732:11619   */\n      jump(tag_238)\n        /* \"#utility.yul\":10762:11380   */\n    tag_239:\n        /* \"#utility.yul\":10814:10818   */\n      0x1f\n        /* \"#utility.yul\":10810:10819   */\n      not\n        /* \"#utility.yul\":10802:10808   */\n      dup5\n        /* \"#utility.yul\":10798:10820   */\n      and\n        /* \"#utility.yul\":10848:10885   */\n      tag_242\n        /* \"#utility.yul\":10880:10884   */\n      dup7\n        /* \"#utility.yul\":10848:10885   */\n      tag_97\n      jump\t// in\n    tag_242:\n        /* \"#utility.yul\":10907:10908   */\n      0x00\n        /* \"#utility.yul\":10921:11129   */\n    tag_243:\n        /* \"#utility.yul\":10935:10942   */\n      dup3\n        /* \"#utility.yul\":10932:10933   */\n      dup2\n        /* \"#utility.yul\":10929:10943   */\n      lt\n        /* \"#utility.yul\":10921:11129   */\n      iszero\n      tag_245\n      jumpi\n        /* \"#utility.yul\":11014:11023   */\n      dup5\n        /* \"#utility.yul\":11009:11012   */\n      dup10\n        /* \"#utility.yul\":11005:11024   */\n      add\n        /* \"#utility.yul\":10999:11025   */\n      mload\n        /* \"#utility.yul\":10991:10997   */\n      dup3\n        /* \"#utility.yul\":10984:11026   */\n      sstore\n        /* \"#utility.yul\":11065:11066   */\n      0x01\n        /* \"#utility.yul\":11057:11063   */\n      dup3\n        /* \"#utility.yul\":11053:11067   */\n      add\n        /* \"#utility.yul\":11043:11067   */\n      swap2\n      pop\n        /* \"#utility.yul\":11112:11114   */\n      0x20\n        /* \"#utility.yul\":11101:11110   */\n      dup6\n        /* \"#utility.yul\":11097:11115   */\n      add\n        /* \"#utility.yul\":11084:11115   */\n      swap5\n      pop\n        /* \"#utility.yul\":10958:10962   */\n      0x20\n        /* \"#utility.yul\":10955:10956   */\n      dup2\n        /* \"#utility.yul\":10951:10963   */\n      add\n        /* \"#utility.yul\":10946:10963   */\n      swap1\n      pop\n        /* \"#utility.yul\":10921:11129   */\n      jump(tag_243)\n    tag_245:\n        /* \"#utility.yul\":11157:11163   */\n      dup7\n        /* \"#utility.yul\":11148:11155   */\n      dup4\n        /* \"#utility.yul\":11145:11164   */\n      lt\n        /* \"#utility.yul\":11142:11321   */\n      iszero\n      tag_246\n      jumpi\n        /* \"#utility.yul\":11215:11224   */\n      dup5\n        /* \"#utility.yul\":11210:11213   */\n      dup10\n        /* \"#utility.yul\":11206:11225   */\n      add\n        /* \"#utility.yul\":11200:11226   */\n      mload\n        /* \"#utility.yul\":11258:11306   */\n      tag_247\n        /* \"#utility.yul\":11300:11304   */\n      0x1f\n        /* \"#utility.yul\":11292:11298   */\n      dup10\n        /* \"#utility.yul\":11288:11305   */\n      and\n        /* \"#utility.yul\":11277:11286   */\n      dup3\n        /* \"#utility.yul\":11258:11306   */\n      tag_110\n      jump\t// in\n    tag_247:\n        /* \"#utility.yul\":11250:11256   */\n      dup4\n        /* \"#utility.yul\":11243:11307   */\n      sstore\n        /* \"#utility.yul\":11165:11321   */\n      pop\n        /* \"#utility.yul\":11142:11321   */\n    tag_246:\n        /* \"#utility.yul\":11367:11368   */\n      0x01\n        /* \"#utility.yul\":11363:11364   */\n      0x02\n        /* \"#utility.yul\":11355:11361   */\n      dup9\n        /* \"#utility.yul\":11351:11365   */\n      mul\n        /* \"#utility.yul\":11347:11369   */\n      add\n        /* \"#utility.yul\":11341:11345   */\n      dup9\n        /* \"#utility.yul\":11334:11370   */\n      sstore\n        /* \"#utility.yul\":10769:11380   */\n      pop\n      pop\n      pop\n        /* \"#utility.yul\":10732:11619   */\n    tag_238:\n      pop\n        /* \"#utility.yul\":10322:11625   */\n      pop\n      pop\n      pop\n        /* \"#utility.yul\":10230:11625   */\n      pop\n      pop\n      jump\t// out\n\n    auxdata: 0xa2646970667358221220066218097099e1f2bb097df5d95a886c2077a81f49d2c46d3e39be9ac315c30964736f6c634300081a0033\n}\n",
				"bytecode": {
					"linkReferences": {},
					"object": "6080604052348015600e575f80fd5b50610a9c8061001c5f395ff3fe608060405234801561000f575f80fd5b5060043610610060575f3560e01c80631d65e77e1461006457806351db2e761461009557806367238562146100b157806380c9419e146100cd5780638719e8ac146100fe578063c39cbef11461011a575b5f80fd5b61007e60048036038101906100799190610458565b610136565b60405161008c92919061050d565b60405180910390f35b6100af60048036038101906100aa9190610458565b610203565b005b6100cb60048036038101906100c69190610667565b61026e565b005b6100e760048036038101906100e29190610458565b6102e4565b6040516100f592919061050d565b60405180910390f35b610118600480360381019061011391906106d8565b6103a4565b005b610134600480360381019061012f9190610716565b6103e1565b005b60605f805f848154811061014d5761014c610770565b5b905f5260205f2090600202019050805f01816001015f9054906101000a900460ff1681805461017b906107ca565b80601f01602080910402602001604051908101604052809291908181526020018280546101a7906107ca565b80156101f25780601f106101c9576101008083540402835291602001916101f2565b820191905f5260205f20905b8154815290600101906020018083116101d557829003601f168201915b505050505091509250925050915091565b5f818154811061021657610215610770565b5b905f5260205f2090600202016001015f9054906101000a900460ff16155f828154811061024657610245610770565b5b905f5260205f2090600202016001015f6101000a81548160ff02191690831515021790555050565b5f60405180604001604052808381526020015f1515815250908060018154018082558091505060019003905f5260205f2090600202015f909190919091505f820151815f0190816102bf9190610997565b506020820151816001015f6101000a81548160ff021916908315150217905550505050565b5f81815481106102f2575f80fd5b905f5260205f2090600202015f91509050805f018054610311906107ca565b80601f016020809104026020016040519081016040528092919081815260200182805461033d906107ca565b80156103885780601f1061035f57610100808354040283529160200191610388565b820191905f5260205f20905b81548152906001019060200180831161036b57829003601f168201915b505050505090806001015f9054906101000a900460ff16905082565b805f83815481106103b8576103b7610770565b5b905f5260205f2090600202016001015f6101000a81548160ff0219169083151502179055505050565b805f83815481106103f5576103f4610770565b5b905f5260205f2090600202015f01908161040f9190610997565b505050565b5f604051905090565b5f80fd5b5f80fd5b5f819050919050565b61043781610425565b8114610441575f80fd5b50565b5f813590506104528161042e565b92915050565b5f6020828403121561046d5761046c61041d565b5b5f61047a84828501610444565b91505092915050565b5f81519050919050565b5f82825260208201905092915050565b8281835e5f83830152505050565b5f601f19601f8301169050919050565b5f6104c582610483565b6104cf818561048d565b93506104df81856020860161049d565b6104e8816104ab565b840191505092915050565b5f8115159050919050565b610507816104f3565b82525050565b5f6040820190508181035f83015261052581856104bb565b905061053460208301846104fe565b9392505050565b5f80fd5b5f80fd5b7f4e487b71000000000000000000000000000000000000000000000000000000005f52604160045260245ffd5b610579826104ab565b810181811067ffffffffffffffff8211171561059857610597610543565b5b80604052505050565b5f6105aa610414565b90506105b68282610570565b919050565b5f67ffffffffffffffff8211156105d5576105d4610543565b5b6105de826104ab565b9050602081019050919050565b828183375f83830152505050565b5f61060b610606846105bb565b6105a1565b9050828152602081018484840111156106275761062661053f565b5b6106328482856105eb565b509392505050565b5f82601f83011261064e5761064d61053b565b5b813561065e8482602086016105f9565b91505092915050565b5f6020828403121561067c5761067b61041d565b5b5f82013567ffffffffffffffff81111561069957610698610421565b5b6106a58482850161063a565b91505092915050565b6106b7816104f3565b81146106c1575f80fd5b50565b5f813590506106d2816106ae565b92915050565b5f80604083850312156106ee576106ed61041d565b5b5f6106fb85828601610444565b925050602061070c858286016106c4565b9150509250929050565b5f806040838503121561072c5761072b61041d565b5b5f61073985828601610444565b925050602083013567ffffffffffffffff81111561075a57610759610421565b5b6107668582860161063a565b9150509250929050565b7f4e487b71000000000000000000000000000000000000000000000000000000005f52603260045260245ffd5b7f4e487b71000000000000000000000000000000000000000000000000000000005f52602260045260245ffd5b5f60028204905060018216806107e157607f821691505b6020821081036107f4576107f361079d565b5b50919050565b5f819050815f5260205f209050919050565b5f6020601f8301049050919050565b5f82821b905092915050565b5f600883026108567fffffffffffffffffffffffffffffffffffffffffffffffffffffffffffffffff8261081b565b610860868361081b565b95508019841693508086168417925050509392505050565b5f819050919050565b5f61089b61089661089184610425565b610878565b610425565b9050919050565b5f819050919050565b6108b483610881565b6108c86108c0826108a2565b848454610827565b825550505050565b5f90565b6108dc6108d0565b6108e78184846108ab565b505050565b5b8181101561090a576108ff5f826108d4565b6001810190506108ed565b5050565b601f82111561094f57610920816107fa565b6109298461080c565b81016020851015610938578190505b61094c6109448561080c565b8301826108ec565b50505b505050565b5f82821c905092915050565b5f61096f5f1984600802610954565b1980831691505092915050565b5f6109878383610960565b9150826002028217905092915050565b6109a082610483565b67ffffffffffffffff8111156109b9576109b8610543565b5b6109c382546107ca565b6109ce82828561090e565b5f60209050601f8311600181146109ff575f84156109ed578287015190505b6109f7858261097c565b865550610a5e565b601f198416610a0d866107fa565b5f5b82811015610a3457848901518255600182019150602085019450602081019050610a0f565b86831015610a515784890151610a4d601f891682610960565b8355505b6001600288020188555050505b50505050505056fea2646970667358221220066218097099e1f2bb097df5d95a886c2077a81f49d2c46d3e39be9ac315c30964736f6c634300081a0033",
					"opcodes": "PUSH1 0x80 PUSH1 0x40 MSTORE CALLVALUE DUP1 ISZERO PUSH1 0xE JUMPI PUSH0 DUP1 REVERT JUMPDEST POP PUSH2 0xA9C DUP1 PUSH2 0x1C PUSH0 CODECOPY PUSH0 RETURN INVALID PUSH1 0x80 PUSH1 0x40 MSTORE CALLVALUE DUP1 ISZERO PUSH2 0xF JUMPI PUSH0 DUP1 REVERT JUMPDEST POP PUSH1 0x4 CALLDATASIZE LT PUSH2 0x60 JUMPI PUSH0 CALLDATALOAD PUSH1 0xE0 SHR DUP1 PUSH4 0x1D65E77E EQ PUSH2 0x64 JUMPI DUP1 PUSH4 0x51DB2E76 EQ PUSH2 0x95 JUMPI DUP1 PUSH4 0x67238562 EQ PUSH2 0xB1 JUMPI DUP1 PUSH4 0x80C9419E EQ PUSH2 0xCD JUMPI DUP1 PUSH4 0x8719E8AC EQ PUSH2 0xFE JUMPI DUP1 PUSH4 0xC39CBEF1 EQ PUSH2 0x11A JUMPI JUMPDEST PUSH0 DUP1 REVERT JUMPDEST PUSH2 0x7E PUSH1 0x4 DUP1 CALLDATASIZE SUB DUP2 ADD SWAP1 PUSH2 0x79 SWAP2 SWAP1 PUSH2 0x458 JUMP JUMPDEST PUSH2 0x136 JUMP JUMPDEST PUSH1 0x40 MLOAD PUSH2 0x8C SWAP3 SWAP2 SWAP1 PUSH2 0x50D JUMP JUMPDEST PUSH1 0x40 MLOAD DUP1 SWAP2 SUB SWAP1 RETURN JUMPDEST PUSH2 0xAF PUSH1 0x4 DUP1 CALLDATASIZE SUB DUP2 ADD SWAP1 PUSH2 0xAA SWAP2 SWAP1 PUSH2 0x458 JUMP JUMPDEST PUSH2 0x203 JUMP JUMPDEST STOP JUMPDEST PUSH2 0xCB PUSH1 0x4 DUP1 CALLDATASIZE SUB DUP2 ADD SWAP1 PUSH2 0xC6 SWAP2 SWAP1 PUSH2 0x667 JUMP JUMPDEST PUSH2 0x26E JUMP JUMPDEST STOP JUMPDEST PUSH2 0xE7 PUSH1 0x4 DUP1 CALLDATASIZE SUB DUP2 ADD SWAP1 PUSH2 0xE2 SWAP2 SWAP1 PUSH2 0x458 JUMP JUMPDEST PUSH2 0x2E4 JUMP JUMPDEST PUSH1 0x40 MLOAD PUSH2 0xF5 SWAP3 SWAP2 SWAP1 PUSH2 0x50D JUMP JUMPDEST PUSH1 0x40 MLOAD DUP1 SWAP2 SUB SWAP1 RETURN JUMPDEST PUSH2 0x118 PUSH1 0x4 DUP1 CALLDATASIZE SUB DUP2 ADD SWAP1 PUSH2 0x113 SWAP2 SWAP1 PUSH2 0x6D8 JUMP JUMPDEST PUSH2 0x3A4 JUMP JUMPDEST STOP JUMPDEST PUSH2 0x134 PUSH1 0x4 DUP1 CALLDATASIZE SUB DUP2 ADD SWAP1 PUSH2 0x12F SWAP2 SWAP1 PUSH2 0x716 JUMP JUMPDEST PUSH2 0x3E1 JUMP JUMPDEST STOP JUMPDEST PUSH1 0x60 PUSH0 DUP1 PUSH0 DUP5 DUP2 SLOAD DUP2 LT PUSH2 0x14D JUMPI PUSH2 0x14C PUSH2 0x770 JUMP JUMPDEST JUMPDEST SWAP1 PUSH0 MSTORE PUSH1 0x20 PUSH0 KECCAK256 SWAP1 PUSH1 0x2 MUL ADD SWAP1 POP DUP1 PUSH0 ADD DUP2 PUSH1 0x1 ADD PUSH0 SWAP1 SLOAD SWAP1 PUSH2 0x100 EXP SWAP1 DIV PUSH1 0xFF AND DUP2 DUP1 SLOAD PUSH2 0x17B SWAP1 PUSH2 0x7CA JUMP JUMPDEST DUP1 PUSH1 0x1F ADD PUSH1 0x20 DUP1 SWAP2 DIV MUL PUSH1 0x20 ADD PUSH1 0x40 MLOAD SWAP1 DUP2 ADD PUSH1 0x40 MSTORE DUP1 SWAP3 SWAP2 SWAP1 DUP2 DUP2 MSTORE PUSH1 0x20 ADD DUP3 DUP1 SLOAD PUSH2 0x1A7 SWAP1 PUSH2 0x7CA JUMP JUMPDEST DUP1 ISZERO PUSH2 0x1F2 JUMPI DUP1 PUSH1 0x1F LT PUSH2 0x1C9 JUMPI PUSH2 0x100 DUP1 DUP4 SLOAD DIV MUL DUP4 MSTORE SWAP2 PUSH1 0x20 ADD SWAP2 PUSH2 0x1F2 JUMP JUMPDEST DUP3 ADD SWAP2 SWAP1 PUSH0 MSTORE PUSH1 0x20 PUSH0 KECCAK256 SWAP1 JUMPDEST DUP2 SLOAD DUP2 MSTORE SWAP1 PUSH1 0x1 ADD SWAP1 PUSH1 0x20 ADD DUP1 DUP4 GT PUSH2 0x1D5 JUMPI DUP3 SWAP1 SUB PUSH1 0x1F AND DUP3 ADD SWAP2 JUMPDEST POP POP POP POP POP SWAP2 POP SWAP3 POP SWAP3 POP POP SWAP2 POP SWAP2 JUMP JUMPDEST PUSH0 DUP2 DUP2 SLOAD DUP2 LT PUSH2 0x216 JUMPI PUSH2 0x215 PUSH2 0x770 JUMP JUMPDEST JUMPDEST SWAP1 PUSH0 MSTORE PUSH1 0x20 PUSH0 KECCAK256 SWAP1 PUSH1 0x2 MUL ADD PUSH1 0x1 ADD PUSH0 SWAP1 SLOAD SWAP1 PUSH2 0x100 EXP SWAP1 DIV PUSH1 0xFF AND ISZERO PUSH0 DUP3 DUP2 SLOAD DUP2 LT PUSH2 0x246 JUMPI PUSH2 0x245 PUSH2 0x770 JUMP JUMPDEST JUMPDEST SWAP1 PUSH0 MSTORE PUSH1 0x20 PUSH0 KECCAK256 SWAP1 PUSH1 0x2 MUL ADD PUSH1 0x1 ADD PUSH0 PUSH2 0x100 EXP DUP2 SLOAD DUP2 PUSH1 0xFF MUL NOT AND SWAP1 DUP4 ISZERO ISZERO MUL OR SWAP1 SSTORE POP POP JUMP JUMPDEST PUSH0 PUSH1 0x40 MLOAD DUP1 PUSH1 0x40 ADD PUSH1 0x40 MSTORE DUP1 DUP4 DUP2 MSTORE PUSH1 0x20 ADD PUSH0 ISZERO ISZERO DUP2 MSTORE POP SWAP1 DUP1 PUSH1 0x1 DUP2 SLOAD ADD DUP1 DUP3 SSTORE DUP1 SWAP2 POP POP PUSH1 0x1 SWAP1 SUB SWAP1 PUSH0 MSTORE PUSH1 0x20 PUSH0 KECCAK256 SWAP1 PUSH1 0x2 MUL ADD PUSH0 SWAP1 SWAP2 SWAP1 SWAP2 SWAP1 SWAP2 POP PUSH0 DUP3 ADD MLOAD DUP2 PUSH0 ADD SWAP1 DUP2 PUSH2 0x2BF SWAP2 SWAP1 PUSH2 0x997 JUMP JUMPDEST POP PUSH1 0x20 DUP3 ADD MLOAD DUP2 PUSH1 0x1 ADD PUSH0 PUSH2 0x100 EXP DUP2 SLOAD DUP2 PUSH1 0xFF MUL NOT AND SWAP1 DUP4 ISZERO ISZERO MUL OR SWAP1 SSTORE POP POP POP POP JUMP JUMPDEST PUSH0 DUP2 DUP2 SLOAD DUP2 LT PUSH2 0x2F2 JUMPI PUSH0 DUP1 REVERT JUMPDEST SWAP1 PUSH0 MSTORE PUSH1 0x20 PUSH0 KECCAK256 SWAP1 PUSH1 0x2 MUL ADD PUSH0 SWAP2 POP SWAP1 POP DUP1 PUSH0 ADD DUP1 SLOAD PUSH2 0x311 SWAP1 PUSH2 0x7CA JUMP JUMPDEST DUP1 PUSH1 0x1F ADD PUSH1 0x20 DUP1 SWAP2 DIV MUL PUSH1 0x20 ADD PUSH1 0x40 MLOAD SWAP1 DUP2 ADD PUSH1 0x40 MSTORE DUP1 SWAP3 SWAP2 SWAP1 DUP2 DUP2 MSTORE PUSH1 0x20 ADD DUP3 DUP1 SLOAD PUSH2 0x33D SWAP1 PUSH2 0x7CA JUMP JUMPDEST DUP1 ISZERO PUSH2 0x388 JUMPI DUP1 PUSH1 0x1F LT PUSH2 0x35F JUMPI PUSH2 0x100 DUP1 DUP4 SLOAD DIV MUL DUP4 MSTORE SWAP2 PUSH1 0x20 ADD SWAP2 PUSH2 0x388 JUMP JUMPDEST DUP3 ADD SWAP2 SWAP1 PUSH0 MSTORE PUSH1 0x20 PUSH0 KECCAK256 SWAP1 JUMPDEST DUP2 SLOAD DUP2 MSTORE SWAP1 PUSH1 0x1 ADD SWAP1 PUSH1 0x20 ADD DUP1 DUP4 GT PUSH2 0x36B JUMPI DUP3 SWAP1 SUB PUSH1 0x1F AND DUP3 ADD SWAP2 JUMPDEST POP POP POP POP POP SWAP1 DUP1 PUSH1 0x1 ADD PUSH0 SWAP1 SLOAD SWAP1 PUSH2 0x100 EXP SWAP1 DIV PUSH1 0xFF AND SWAP1 POP DUP3 JUMP JUMPDEST DUP1 PUSH0 DUP4 DUP2 SLOAD DUP2 LT PUSH2 0x3B8 JUMPI PUSH2 0x3B7 PUSH2 0x770 JUMP JUMPDEST JUMPDEST SWAP1 PUSH0 MSTORE PUSH1 0x20 PUSH0 KECCAK256 SWAP1 PUSH1 0x2 MUL ADD PUSH1 0x1 ADD PUSH0 PUSH2 0x100 EXP DUP2 SLOAD DUP2 PUSH1 0xFF MUL NOT AND SWAP1 DUP4 ISZERO ISZERO MUL OR SWAP1 SSTORE POP POP POP JUMP JUMPDEST DUP1 PUSH0 DUP4 DUP2 SLOAD DUP2 LT PUSH2 0x3F5 JUMPI PUSH2 0x3F4 PUSH2 0x770 JUMP JUMPDEST JUMPDEST SWAP1 PUSH0 MSTORE PUSH1 0x20 PUSH0 KECCAK256 SWAP1 PUSH1 0x2 MUL ADD PUSH0 ADD SWAP1 DUP2 PUSH2 0x40F SWAP2 SWAP1 PUSH2 0x997 JUMP JUMPDEST POP POP POP JUMP JUMPDEST PUSH0 PUSH1 0x40 MLOAD SWAP1 POP SWAP1 JUMP JUMPDEST PUSH0 DUP1 REVERT JUMPDEST PUSH0 DUP1 REVERT JUMPDEST PUSH0 DUP2 SWAP1 POP SWAP2 SWAP1 POP JUMP JUMPDEST PUSH2 0x437 DUP2 PUSH2 0x425 JUMP JUMPDEST DUP2 EQ PUSH2 0x441 JUMPI PUSH0 DUP1 REVERT JUMPDEST POP JUMP JUMPDEST PUSH0 DUP2 CALLDATALOAD SWAP1 POP PUSH2 0x452 DUP2 PUSH2 0x42E JUMP JUMPDEST SWAP3 SWAP2 POP POP JUMP JUMPDEST PUSH0 PUSH1 0x20 DUP3 DUP5 SUB SLT ISZERO PUSH2 0x46D JUMPI PUSH2 0x46C PUSH2 0x41D JUMP JUMPDEST JUMPDEST PUSH0 PUSH2 0x47A DUP5 DUP3 DUP6 ADD PUSH2 0x444 JUMP JUMPDEST SWAP2 POP POP SWAP3 SWAP2 POP POP JUMP JUMPDEST PUSH0 DUP2 MLOAD SWAP1 POP SWAP2 SWAP1 POP JUMP JUMPDEST PUSH0 DUP3 DUP3 MSTORE PUSH1 0x20 DUP3 ADD SWAP1 POP SWAP3 SWAP2 POP POP JUMP JUMPDEST DUP3 DUP2 DUP4 MCOPY PUSH0 DUP4 DUP4 ADD MSTORE POP POP POP JUMP JUMPDEST PUSH0 PUSH1 0x1F NOT PUSH1 0x1F DUP4 ADD AND SWAP1 POP SWAP2 SWAP1 POP JUMP JUMPDEST PUSH0 PUSH2 0x4C5 DUP3 PUSH2 0x483 JUMP JUMPDEST PUSH2 0x4CF DUP2 DUP6 PUSH2 0x48D JUMP JUMPDEST SWAP4 POP PUSH2 0x4DF DUP2 DUP6 PUSH1 0x20 DUP7 ADD PUSH2 0x49D JUMP JUMPDEST PUSH2 0x4E8 DUP2 PUSH2 0x4AB JUMP JUMPDEST DUP5 ADD SWAP2 POP POP SWAP3 SWAP2 POP POP JUMP JUMPDEST PUSH0 DUP2 ISZERO ISZERO SWAP1 POP SWAP2 SWAP1 POP JUMP JUMPDEST PUSH2 0x507 DUP2 PUSH2 0x4F3 JUMP JUMPDEST DUP3 MSTORE POP POP JUMP JUMPDEST PUSH0 PUSH1 0x40 DUP3 ADD SWAP1 POP DUP2 DUP2 SUB PUSH0 DUP4 ADD MSTORE PUSH2 0x525 DUP2 DUP6 PUSH2 0x4BB JUMP JUMPDEST SWAP1 POP PUSH2 0x534 PUSH1 0x20 DUP4 ADD DUP5 PUSH2 0x4FE JUMP JUMPDEST SWAP4 SWAP3 POP POP POP JUMP JUMPDEST PUSH0 DUP1 REVERT JUMPDEST PUSH0 DUP1 REVERT JUMPDEST PUSH32 0x4E487B7100000000000000000000000000000000000000000000000000000000 PUSH0 MSTORE PUSH1 0x41 PUSH1 0x4 MSTORE PUSH1 0x24 PUSH0 REVERT JUMPDEST PUSH2 0x579 DUP3 PUSH2 0x4AB JUMP JUMPDEST DUP2 ADD DUP2 DUP2 LT PUSH8 0xFFFFFFFFFFFFFFFF DUP3 GT OR ISZERO PUSH2 0x598 JUMPI PUSH2 0x597 PUSH2 0x543 JUMP JUMPDEST JUMPDEST DUP1 PUSH1 0x40 MSTORE POP POP POP JUMP JUMPDEST PUSH0 PUSH2 0x5AA PUSH2 0x414 JUMP JUMPDEST SWAP1 POP PUSH2 0x5B6 DUP3 DUP3 PUSH2 0x570 JUMP JUMPDEST SWAP2 SWAP1 POP JUMP JUMPDEST PUSH0 PUSH8 0xFFFFFFFFFFFFFFFF DUP3 GT ISZERO PUSH2 0x5D5 JUMPI PUSH2 0x5D4 PUSH2 0x543 JUMP JUMPDEST JUMPDEST PUSH2 0x5DE DUP3 PUSH2 0x4AB JUMP JUMPDEST SWAP1 POP PUSH1 0x20 DUP2 ADD SWAP1 POP SWAP2 SWAP1 POP JUMP JUMPDEST DUP3 DUP2 DUP4 CALLDATACOPY PUSH0 DUP4 DUP4 ADD MSTORE POP POP POP JUMP JUMPDEST PUSH0 PUSH2 0x60B PUSH2 0x606 DUP5 PUSH2 0x5BB JUMP JUMPDEST PUSH2 0x5A1 JUMP JUMPDEST SWAP1 POP DUP3 DUP2 MSTORE PUSH1 0x20 DUP2 ADD DUP5 DUP5 DUP5 ADD GT ISZERO PUSH2 0x627 JUMPI PUSH2 0x626 PUSH2 0x53F JUMP JUMPDEST JUMPDEST PUSH2 0x632 DUP5 DUP3 DUP6 PUSH2 0x5EB JUMP JUMPDEST POP SWAP4 SWAP3 POP POP POP JUMP JUMPDEST PUSH0 DUP3 PUSH1 0x1F DUP4 ADD SLT PUSH2 0x64E JUMPI PUSH2 0x64D PUSH2 0x53B JUMP JUMPDEST JUMPDEST DUP2 CALLDATALOAD PUSH2 0x65E DUP5 DUP3 PUSH1 0x20 DUP7 ADD PUSH2 0x5F9 JUMP JUMPDEST SWAP2 POP POP SWAP3 SWAP2 POP POP JUMP JUMPDEST PUSH0 PUSH1 0x20 DUP3 DUP5 SUB SLT ISZERO PUSH2 0x67C JUMPI PUSH2 0x67B PUSH2 0x41D JUMP JUMPDEST JUMPDEST PUSH0 DUP3 ADD CALLDATALOAD PUSH8 0xFFFFFFFFFFFFFFFF DUP2 GT ISZERO PUSH2 0x699 JUMPI PUSH2 0x698 PUSH2 0x421 JUMP JUMPDEST JUMPDEST PUSH2 0x6A5 DUP5 DUP3 DUP6 ADD PUSH2 0x63A JUMP JUMPDEST SWAP2 POP POP SWAP3 SWAP2 POP POP JUMP JUMPDEST PUSH2 0x6B7 DUP2 PUSH2 0x4F3 JUMP JUMPDEST DUP2 EQ PUSH2 0x6C1 JUMPI PUSH0 DUP1 REVERT JUMPDEST POP JUMP JUMPDEST PUSH0 DUP2 CALLDATALOAD SWAP1 POP PUSH2 0x6D2 DUP2 PUSH2 0x6AE JUMP JUMPDEST SWAP3 SWAP2 POP POP JUMP JUMPDEST PUSH0 DUP1 PUSH1 0x40 DUP4 DUP6 SUB SLT ISZERO PUSH2 0x6EE JUMPI PUSH2 0x6ED PUSH2 0x41D JUMP JUMPDEST JUMPDEST PUSH0 PUSH2 0x6FB DUP6 DUP3 DUP7 ADD PUSH2 0x444 JUMP JUMPDEST SWAP3 POP POP PUSH1 0x20 PUSH2 0x70C DUP6 DUP3 DUP7 ADD PUSH2 0x6C4 JUMP JUMPDEST SWAP2 POP POP SWAP3 POP SWAP3 SWAP1 POP JUMP JUMPDEST PUSH0 DUP1 PUSH1 0x40 DUP4 DUP6 SUB SLT ISZERO PUSH2 0x72C JUMPI PUSH2 0x72B PUSH2 0x41D JUMP JUMPDEST JUMPDEST PUSH0 PUSH2 0x739 DUP6 DUP3 DUP7 ADD PUSH2 0x444 JUMP JUMPDEST SWAP3 POP POP PUSH1 0x20 DUP4 ADD CALLDATALOAD PUSH8 0xFFFFFFFFFFFFFFFF DUP2 GT ISZERO PUSH2 0x75A JUMPI PUSH2 0x759 PUSH2 0x421 JUMP JUMPDEST JUMPDEST PUSH2 0x766 DUP6 DUP3 DUP7 ADD PUSH2 0x63A JUMP JUMPDEST SWAP2 POP POP SWAP3 POP SWAP3 SWAP1 POP JUMP JUMPDEST PUSH32 0x4E487B7100000000000000000000000000000000000000000000000000000000 PUSH0 MSTORE PUSH1 0x32 PUSH1 0x4 MSTORE PUSH1 0x24 PUSH0 REVERT JUMPDEST PUSH32 0x4E487B7100000000000000000000000000000000000000000000000000000000 PUSH0 MSTORE PUSH1 0x22 PUSH1 0x4 MSTORE PUSH1 0x24 PUSH0 REVERT JUMPDEST PUSH0 PUSH1 0x2 DUP3 DIV SWAP1 POP PUSH1 0x1 DUP3 AND DUP1 PUSH2 0x7E1 JUMPI PUSH1 0x7F DUP3 AND SWAP2 POP JUMPDEST PUSH1 0x20 DUP3 LT DUP2 SUB PUSH2 0x7F4 JUMPI PUSH2 0x7F3 PUSH2 0x79D JUMP JUMPDEST JUMPDEST POP SWAP2 SWAP1 POP JUMP JUMPDEST PUSH0 DUP2 SWAP1 POP DUP2 PUSH0 MSTORE PUSH1 0x20 PUSH0 KECCAK256 SWAP1 POP SWAP2 SWAP1 POP JUMP JUMPDEST PUSH0 PUSH1 0x20 PUSH1 0x1F DUP4 ADD DIV SWAP1 POP SWAP2 SWAP1 POP JUMP JUMPDEST PUSH0 DUP3 DUP3 SHL SWAP1 POP SWAP3 SWAP2 POP POP JUMP JUMPDEST PUSH0 PUSH1 0x8 DUP4 MUL PUSH2 0x856 PUSH32 0xFFFFFFFFFFFFFFFFFFFFFFFFFFFFFFFFFFFFFFFFFFFFFFFFFFFFFFFFFFFFFFFF DUP3 PUSH2 0x81B JUMP JUMPDEST PUSH2 0x860 DUP7 DUP4 PUSH2 0x81B JUMP JUMPDEST SWAP6 POP DUP1 NOT DUP5 AND SWAP4 POP DUP1 DUP7 AND DUP5 OR SWAP3 POP POP POP SWAP4 SWAP3 POP POP POP JUMP JUMPDEST PUSH0 DUP2 SWAP1 POP SWAP2 SWAP1 POP JUMP JUMPDEST PUSH0 PUSH2 0x89B PUSH2 0x896 PUSH2 0x891 DUP5 PUSH2 0x425 JUMP JUMPDEST PUSH2 0x878 JUMP JUMPDEST PUSH2 0x425 JUMP JUMPDEST SWAP1 POP SWAP2 SWAP1 POP JUMP JUMPDEST PUSH0 DUP2 SWAP1 POP SWAP2 SWAP1 POP JUMP JUMPDEST PUSH2 0x8B4 DUP4 PUSH2 0x881 JUMP JUMPDEST PUSH2 0x8C8 PUSH2 0x8C0 DUP3 PUSH2 0x8A2 JUMP JUMPDEST DUP5 DUP5 SLOAD PUSH2 0x827 JUMP JUMPDEST DUP3 SSTORE POP POP POP POP JUMP JUMPDEST PUSH0 SWAP1 JUMP JUMPDEST PUSH2 0x8DC PUSH2 0x8D0 JUMP JUMPDEST PUSH2 0x8E7 DUP2 DUP5 DUP5 PUSH2 0x8AB JUMP JUMPDEST POP POP POP JUMP JUMPDEST JUMPDEST DUP2 DUP2 LT ISZERO PUSH2 0x90A JUMPI PUSH2 0x8FF PUSH0 DUP3 PUSH2 0x8D4 JUMP JUMPDEST PUSH1 0x1 DUP2 ADD SWAP1 POP PUSH2 0x8ED JUMP JUMPDEST POP POP JUMP JUMPDEST PUSH1 0x1F DUP3 GT ISZERO PUSH2 0x94F JUMPI PUSH2 0x920 DUP2 PUSH2 0x7FA JUMP JUMPDEST PUSH2 0x929 DUP5 PUSH2 0x80C JUMP JUMPDEST DUP2 ADD PUSH1 0x20 DUP6 LT ISZERO PUSH2 0x938 JUMPI DUP2 SWAP1 POP JUMPDEST PUSH2 0x94C PUSH2 0x944 DUP6 PUSH2 0x80C JUMP JUMPDEST DUP4 ADD DUP3 PUSH2 0x8EC JUMP JUMPDEST POP POP JUMPDEST POP POP POP JUMP JUMPDEST PUSH0 DUP3 DUP3 SHR SWAP1 POP SWAP3 SWAP2 POP POP JUMP JUMPDEST PUSH0 PUSH2 0x96F PUSH0 NOT DUP5 PUSH1 0x8 MUL PUSH2 0x954 JUMP JUMPDEST NOT DUP1 DUP4 AND SWAP2 POP POP SWAP3 SWAP2 POP POP JUMP JUMPDEST PUSH0 PUSH2 0x987 DUP4 DUP4 PUSH2 0x960 JUMP JUMPDEST SWAP2 POP DUP3 PUSH1 0x2 MUL DUP3 OR SWAP1 POP SWAP3 SWAP2 POP POP JUMP JUMPDEST PUSH2 0x9A0 DUP3 PUSH2 0x483 JUMP JUMPDEST PUSH8 0xFFFFFFFFFFFFFFFF DUP2 GT ISZERO PUSH2 0x9B9 JUMPI PUSH2 0x9B8 PUSH2 0x543 JUMP JUMPDEST JUMPDEST PUSH2 0x9C3 DUP3 SLOAD PUSH2 0x7CA JUMP JUMPDEST PUSH2 0x9CE DUP3 DUP3 DUP6 PUSH2 0x90E JUMP JUMPDEST PUSH0 PUSH1 0x20 SWAP1 POP PUSH1 0x1F DUP4 GT PUSH1 0x1 DUP2 EQ PUSH2 0x9FF JUMPI PUSH0 DUP5 ISZERO PUSH2 0x9ED JUMPI DUP3 DUP8 ADD MLOAD SWAP1 POP JUMPDEST PUSH2 0x9F7 DUP6 DUP3 PUSH2 0x97C JUMP JUMPDEST DUP7 SSTORE POP PUSH2 0xA5E JUMP JUMPDEST PUSH1 0x1F NOT DUP5 AND PUSH2 0xA0D DUP7 PUSH2 0x7FA JUMP JUMPDEST PUSH0 JUMPDEST DUP3 DUP2 LT ISZERO PUSH2 0xA34 JUMPI DUP5 DUP10 ADD MLOAD DUP3 SSTORE PUSH1 0x1 DUP3 ADD SWAP2 POP PUSH1 0x20 DUP6 ADD SWAP5 POP PUSH1 0x20 DUP2 ADD SWAP1 POP PUSH2 0xA0F JUMP JUMPDEST DUP7 DUP4 LT ISZERO PUSH2 0xA51 JUMPI DUP5 DUP10 ADD MLOAD PUSH2 0xA4D PUSH1 0x1F DUP10 AND DUP3 PUSH2 0x960 JUMP JUMPDEST DUP4 SSTORE POP JUMPDEST PUSH1 0x1 PUSH1 0x2 DUP9 MUL ADD DUP9 SSTORE POP POP POP JUMPDEST POP POP POP POP POP POP JUMP INVALID LOG2 PUSH5 0x6970667358 0x22 SLT KECCAK256 MOD PUSH3 0x180970 SWAP10 0xE1 CALLCODE 0xBB MULMOD PUSH30 0xF5D95A886C2077A81F49D2C46D3E39BE9AC315C30964736F6C634300081A STOP CALLER "
				},
				"gasEstimates": {
					"creation": {
						"codeDepositCost": "543200",
						"executionCost": "573",
						"totalCost": "543773"
					},
					"external": {
						"addTask(string)": "infinite",
						"changeName(uint256,string)": "infinite",
						"getTask(uint256)": "infinite",
						"list(uint256)": "infinite",
						"setStatus(uint256,bool)": "27104",
						"toggleStatus(uint256)": "31193"
					}
				},
				"methodIdentifiers": {
					"addTask(string)": "67238562",
					"changeName(uint256,string)": "c39cbef1",
					"getTask(uint256)": "1d65e77e",
					"list(uint256)": "80c9419e",
					"setStatus(uint256,bool)": "8719e8ac",
					"toggleStatus(uint256)": "51db2e76"
				}
			},
			"storageLayout": {
				"storage": [
					{
						"astId": 10,
						"contract": "contracts/TodoList.sol:TodoList",
						"label": "list",
						"offset": 0,
						"slot": "0",
						"type": "t_array(t_struct(Task)6_storage)dyn_storage"
					}
				],
				"types": {
					"t_array(t_struct(Task)6_storage)dyn_storage": {
						"base": "t_struct(Task)6_storage",
						"encoding": "dynamic_array",
						"label": "struct TodoList.Task[]",
						"numberOfBytes": "32"
					},
					"t_bool": {
						"encoding": "inplace",
						"label": "bool",
						"numberOfBytes": "1"
					},
					"t_string_storage": {
						"encoding": "bytes",
						"label": "string",
						"numberOfBytes": "32"
					},
					"t_struct(Task)6_storage": {
						"encoding": "inplace",
						"label": "struct TodoList.Task",
						"members": [
							{
								"astId": 3,
								"contract": "contracts/TodoList.sol:TodoList",
								"label": "name",
								"offset": 0,
								"slot": "0",
								"type": "t_string_storage"
							},
							{
								"astId": 5,
								"contract": "contracts/TodoList.sol:TodoList",
								"label": "isCompleted",
								"offset": 0,
								"slot": "1",
								"type": "t_bool"
							}
						],
						"numberOfBytes": "64"
					}
				}
			},
			"userdoc": {
				"kind": "user",
				"methods": {},
				"version": 1
			}
		}
	}
}