{
	"contracts/Bank.sol": {
		"Bank": {
			"abi": [
				{
					"inputs": [],
					"stateMutability": "nonpayable",
					"type": "constructor"
				},
				{
					"anonymous": false,
					"inputs": [
						{
							"indexed": false,
							"internalType": "address",
							"name": "sender",
							"type": "address"
						},
						{
							"indexed": false,
							"internalType": "uint256",
							"name": "amount",
							"type": "uint256"
						}
					],
					"name": "Deposit",
					"type": "event"
				},
				{
					"anonymous": false,
					"inputs": [
						{
							"indexed": false,
							"internalType": "address",
							"name": "token",
							"type": "address"
						},
						{
							"indexed": false,
							"internalType": "address",
							"name": "sender",
							"type": "address"
						},
						{
							"indexed": false,
							"internalType": "uint256",
							"name": "tokenId",
							"type": "uint256"
						}
					],
					"name": "NFTDeposit",
					"type": "event"
				},
				{
					"anonymous": false,
					"inputs": [
						{
							"indexed": false,
							"internalType": "address",
							"name": "token",
							"type": "address"
						},
						{
							"indexed": false,
							"internalType": "uint256",
							"name": "tokenId",
							"type": "uint256"
						}
					],
					"name": "NFTWithdraw",
					"type": "event"
				},
				{
					"anonymous": false,
					"inputs": [
						{
							"indexed": false,
							"internalType": "address",
							"name": "token",
							"type": "address"
						},
						{
							"indexed": false,
							"internalType": "address",
							"name": "sender",
							"type": "address"
						},
						{
							"indexed": false,
							"internalType": "uint256",
							"name": "amount",
							"type": "uint256"
						}
					],
					"name": "TokenDeposit",
					"type": "event"
				},
				{
					"anonymous": false,
					"inputs": [
						{
							"indexed": false,
							"internalType": "address",
							"name": "token",
							"type": "address"
						},
						{
							"indexed": false,
							"internalType": "uint256",
							"name": "amount",
							"type": "uint256"
						}
					],
					"name": "TokenWithdraw",
					"type": "event"
				},
				{
					"anonymous": false,
					"inputs": [
						{
							"indexed": false,
							"internalType": "uint256",
							"name": "amount",
							"type": "uint256"
						}
					],
					"name": "Withdraw",
					"type": "event"
				},
				{
					"inputs": [
						{
							"internalType": "address",
							"name": "token",
							"type": "address"
						},
						{
							"internalType": "uint256",
							"name": "tokenId",
							"type": "uint256"
						}
					],
					"name": "depositNFT",
					"outputs": [],
					"stateMutability": "nonpayable",
					"type": "function"
				},
				{
					"inputs": [
						{
							"internalType": "address",
							"name": "token",
							"type": "address"
						},
						{
							"internalType": "uint256",
							"name": "amount",
							"type": "uint256"
						}
					],
					"name": "depositTokens",
					"outputs": [],
					"stateMutability": "nonpayable",
					"type": "function"
				},
				{
					"inputs": [],
					"name": "getBalance",
					"outputs": [
						{
							"internalType": "uint256",
							"name": "",
							"type": "uint256"
						}
					],
					"stateMutability": "view",
					"type": "function"
				},
				{
					"inputs": [],
					"name": "owner",
					"outputs": [
						{
							"internalType": "address",
							"name": "",
							"type": "address"
						}
					],
					"stateMutability": "view",
					"type": "function"
				},
				{
					"inputs": [],
					"name": "withdraw",
					"outputs": [],
					"stateMutability": "nonpayable",
					"type": "function"
				},
				{
					"inputs": [
						{
							"internalType": "address",
							"name": "token",
							"type": "address"
						},
						{
							"internalType": "uint256",
							"name": "tokenId",
							"type": "uint256"
						}
					],
					"name": "withdrawNFT",
					"outputs": [],
					"stateMutability": "nonpayable",
					"type": "function"
				},
				{
					"inputs": [
						{
							"internalType": "address",
							"name": "token",
							"type": "address"
						}
					],
					"name": "withdrawTokens",
					"outputs": [],
					"stateMutability": "nonpayable",
					"type": "function"
				},
				{
					"stateMutability": "payable",
					"type": "receive"
				}
			],
			"devdoc": {
				"kind": "dev",
				"methods": {},
				"version": 1
			},
			"evm": {
				"assembly": "    /* \"contracts/Bank.sol\":180:2037  contract Bank {... */\n  mstore(0x40, 0xa0)\n    /* \"contracts/Bank.sol\":754:806  constructor() { ... */\n  callvalue\n  dup1\n  iszero\n  tag_1\n  jumpi\n  0x00\n  dup1\n  revert\ntag_1:\n  pop\n    /* \"contracts/Bank.sol\":788:798  msg.sender */\n  caller\n    /* \"contracts/Bank.sol\":780:798  owner = msg.sender */\n  0xffffffffffffffffffffffffffffffffffffffff\n  and\n  0x80\n  dup2\n  0xffffffffffffffffffffffffffffffffffffffff\n  and\n  dup2\n  mstore\n  pop\n  pop\n    /* \"contracts/Bank.sol\":180:2037  contract Bank {... */\n  mload(0x80)\n  codecopy(0x00, dataOffset(sub_0), dataSize(sub_0))\n  0x00\n  assignImmutable(\"0x4f5a3c09b013dec99caa2e76189ac6b9d447b07e106c91689b49859e0cc5bc96\")\n  return(0x00, dataSize(sub_0))\nstop\n\nsub_0: assembly {\n        /* \"contracts/Bank.sol\":180:2037  contract Bank {... */\n      mstore(0x40, 0x80)\n      jumpi(tag_1, lt(calldatasize, 0x04))\n      shr(0xe0, calldataload(0x00))\n      dup1\n      0x6088e93a\n      gt\n      tag_10\n      jumpi\n      dup1\n      0x6088e93a\n      eq\n      tag_6\n      jumpi\n      dup1\n      0x66168bd7\n      eq\n      tag_7\n      jumpi\n      dup1\n      0x8da5cb5b\n      eq\n      tag_8\n      jumpi\n      dup1\n      0x9b5b9b18\n      eq\n      tag_9\n      jumpi\n      jump(tag_2)\n    tag_10:\n      dup1\n      0x12065fe0\n      eq\n      tag_3\n      jumpi\n      dup1\n      0x3ccfd60b\n      eq\n      tag_4\n      jumpi\n      dup1\n      0x49df728c\n      eq\n      tag_5\n      jumpi\n      jump(tag_2)\n    tag_1:\n      jumpi(tag_2, calldatasize)\n        /* \"contracts/Bank.sol\":708:738  Deposit(msg.sender, msg.value) */\n      0xe1fffcc4923d04b559f4d29a8bfc6cda04eb5b0d3c460751c2402c5c5cc9109c\n        /* \"contracts/Bank.sol\":716:726  msg.sender */\n      caller\n        /* \"contracts/Bank.sol\":728:737  msg.value */\n      callvalue\n        /* \"contracts/Bank.sol\":708:738  Deposit(msg.sender, msg.value) */\n      mload(0x40)\n      tag_13\n      swap3\n      swap2\n      swap1\n      tag_14\n      jump\t// in\n    tag_13:\n      mload(0x40)\n      dup1\n      swap2\n      sub\n      swap1\n      log1\n        /* \"contracts/Bank.sol\":180:2037  contract Bank {... */\n      stop\n    tag_2:\n      0x00\n      dup1\n      revert\n        /* \"contracts/Bank.sol\":1933:2034  function getBalance() external view returns (uint256) {... */\n    tag_3:\n      callvalue\n      dup1\n      iszero\n      tag_15\n      jumpi\n      0x00\n      dup1\n      revert\n    tag_15:\n      pop\n      tag_16\n      tag_17\n      jump\t// in\n    tag_16:\n      mload(0x40)\n      tag_18\n      swap2\n      swap1\n      tag_19\n      jump\t// in\n    tag_18:\n      mload(0x40)\n      dup1\n      swap2\n      sub\n      swap1\n      return\n        /* \"contracts/Bank.sol\":814:947  function withdraw() external onlyOwner {... */\n    tag_4:\n      callvalue\n      dup1\n      iszero\n      tag_20\n      jumpi\n      0x00\n      dup1\n      revert\n    tag_20:\n      pop\n      tag_21\n      tag_22\n      jump\t// in\n    tag_21:\n      stop\n        /* \"contracts/Bank.sol\":1158:1421  function withdrawTokens(address token) external onlyOwner {... */\n    tag_5:\n      callvalue\n      dup1\n      iszero\n      tag_23\n      jumpi\n      0x00\n      dup1\n      revert\n    tag_23:\n      pop\n      tag_24\n      0x04\n      dup1\n      calldatasize\n      sub\n      dup2\n      add\n      swap1\n      tag_25\n      swap2\n      swap1\n      tag_26\n      jump\t// in\n    tag_25:\n      tag_27\n      jump\t// in\n    tag_24:\n      stop\n        /* \"contracts/Bank.sol\":1694:1925  function withdrawNFT(address token, uint256 tokenId) external onlyOwner {... */\n    tag_6:\n      callvalue\n      dup1\n      iszero\n      tag_28\n      jumpi\n      0x00\n      dup1\n      revert\n    tag_28:\n      pop\n      tag_29\n      0x04\n      dup1\n      calldatasize\n      sub\n      dup2\n      add\n      swap1\n      tag_30\n      swap2\n      swap1\n      tag_31\n      jump\t// in\n    tag_30:\n      tag_32\n      jump\t// in\n    tag_29:\n      stop\n        /* \"contracts/Bank.sol\":955:1150  function depositTokens(address token, uint amount) external {... */\n    tag_7:\n      callvalue\n      dup1\n      iszero\n      tag_33\n      jumpi\n      0x00\n      dup1\n      revert\n    tag_33:\n      pop\n      tag_34\n      0x04\n      dup1\n      calldatasize\n      sub\n      dup2\n      add\n      swap1\n      tag_35\n      swap2\n      swap1\n      tag_31\n      jump\t// in\n    tag_35:\n      tag_36\n      jump\t// in\n    tag_34:\n      stop\n        /* \"contracts/Bank.sol\":201:231  address public immutable owner */\n    tag_8:\n      callvalue\n      dup1\n      iszero\n      tag_37\n      jumpi\n      0x00\n      dup1\n      revert\n    tag_37:\n      pop\n      tag_38\n      tag_39\n      jump\t// in\n    tag_38:\n      mload(0x40)\n      tag_40\n      swap2\n      swap1\n      tag_41\n      jump\t// in\n    tag_40:\n      mload(0x40)\n      dup1\n      swap2\n      sub\n      swap1\n      return\n        /* \"contracts/Bank.sol\":1459:1656  function depositNFT(address token, uint256 tokenId) external {... */\n    tag_9:\n      callvalue\n      dup1\n      iszero\n      tag_42\n      jumpi\n      0x00\n      dup1\n      revert\n    tag_42:\n      pop\n      tag_43\n      0x04\n      dup1\n      calldatasize\n      sub\n      dup2\n      add\n      swap1\n      tag_44\n      swap2\n      swap1\n      tag_31\n      jump\t// in\n    tag_44:\n      tag_45\n      jump\t// in\n    tag_43:\n      stop\n        /* \"contracts/Bank.sol\":1933:2034  function getBalance() external view returns (uint256) {... */\n    tag_17:\n        /* \"contracts/Bank.sol\":1978:1985  uint256 */\n      0x00\n        /* \"contracts/Bank.sol\":2005:2026  address(this).balance */\n      selfbalance\n        /* \"contracts/Bank.sol\":1998:2026  return address(this).balance */\n      swap1\n      pop\n        /* \"contracts/Bank.sol\":1933:2034  function getBalance() external view returns (uint256) {... */\n      swap1\n      jump\t// out\n        /* \"contracts/Bank.sol\":814:947  function withdraw() external onlyOwner {... */\n    tag_22:\n        /* \"contracts/Bank.sol\":631:636  owner */\n      immutable(\"0x4f5a3c09b013dec99caa2e76189ac6b9d447b07e106c91689b49859e0cc5bc96\")\n        /* \"contracts/Bank.sol\":617:636  msg.sender == owner */\n      0xffffffffffffffffffffffffffffffffffffffff\n      and\n        /* \"contracts/Bank.sol\":617:627  msg.sender */\n      caller\n        /* \"contracts/Bank.sol\":617:636  msg.sender == owner */\n      0xffffffffffffffffffffffffffffffffffffffff\n      and\n      eq\n        /* \"contracts/Bank.sol\":609:637  require(msg.sender == owner) */\n      tag_48\n      jumpi\n      0x00\n      dup1\n      revert\n    tag_48:\n        /* \"contracts/Bank.sol\":869:900  Withdraw(address(this).balance) */\n      0x5b6b431d4476a211bb7d41c20d1aab9ae2321deee0d20be3d9fc9b1093fa6e3d\n        /* \"contracts/Bank.sol\":878:899  address(this).balance */\n      selfbalance\n        /* \"contracts/Bank.sol\":869:900  Withdraw(address(this).balance) */\n      mload(0x40)\n      tag_50\n      swap2\n      swap1\n      tag_19\n      jump\t// in\n    tag_50:\n      mload(0x40)\n      dup1\n      swap2\n      sub\n      swap1\n      log1\n        /* \"contracts/Bank.sol\":932:937  owner */\n      immutable(\"0x4f5a3c09b013dec99caa2e76189ac6b9d447b07e106c91689b49859e0cc5bc96\")\n        /* \"contracts/Bank.sol\":911:939  selfdestruct(payable(owner)) */\n      0xffffffffffffffffffffffffffffffffffffffff\n      and\n      selfdestruct\n        /* \"contracts/Bank.sol\":1158:1421  function withdrawTokens(address token) external onlyOwner {... */\n    tag_27:\n        /* \"contracts/Bank.sol\":631:636  owner */\n      immutable(\"0x4f5a3c09b013dec99caa2e76189ac6b9d447b07e106c91689b49859e0cc5bc96\")\n        /* \"contracts/Bank.sol\":617:636  msg.sender == owner */\n      0xffffffffffffffffffffffffffffffffffffffff\n      and\n        /* \"contracts/Bank.sol\":617:627  msg.sender */\n      caller\n        /* \"contracts/Bank.sol\":617:636  msg.sender == owner */\n      0xffffffffffffffffffffffffffffffffffffffff\n      and\n      eq\n        /* \"contracts/Bank.sol\":609:637  require(msg.sender == owner) */\n      tag_52\n      jumpi\n      0x00\n      dup1\n      revert\n    tag_52:\n        /* \"contracts/Bank.sol\":1227:1239  uint balance */\n      0x00\n        /* \"contracts/Bank.sol\":1249:1254  token */\n      dup2\n        /* \"contracts/Bank.sol\":1242:1265  IERC20(token).balanceOf */\n      0xffffffffffffffffffffffffffffffffffffffff\n      and\n      0x70a08231\n        /* \"contracts/Bank.sol\":1274:1278  this */\n      address\n        /* \"contracts/Bank.sol\":1242:1280  IERC20(token).balanceOf(address(this)) */\n      mload(0x40)\n      dup3\n      0xffffffff\n      and\n      0xe0\n      shl\n      dup2\n      mstore\n      0x04\n      add\n      tag_54\n      swap2\n      swap1\n      tag_41\n      jump\t// in\n    tag_54:\n      0x20\n      mload(0x40)\n      dup1\n      dup4\n      sub\n      dup2\n      dup7\n      gas\n      staticcall\n      iszero\n      dup1\n      iszero\n      tag_56\n      jumpi\n      returndatasize\n      0x00\n      dup1\n      returndatacopy\n      revert(0x00, returndatasize)\n    tag_56:\n      pop\n      pop\n      pop\n      pop\n      mload(0x40)\n      returndatasize\n      not(0x1f)\n      0x1f\n      dup3\n      add\n      and\n      dup3\n      add\n      dup1\n      0x40\n      mstore\n      pop\n      dup2\n      add\n      swap1\n      tag_57\n      swap2\n      swap1\n      tag_58\n      jump\t// in\n    tag_57:\n        /* \"contracts/Bank.sol\":1227:1280  uint balance = IERC20(token).balanceOf(address(this)) */\n      swap1\n      pop\n        /* \"contracts/Bank.sol\":1298:1303  token */\n      dup2\n        /* \"contracts/Bank.sol\":1291:1313  IERC20(token).transfer */\n      0xffffffffffffffffffffffffffffffffffffffff\n      and\n      0xa9059cbb\n        /* \"contracts/Bank.sol\":1314:1319  owner */\n      immutable(\"0x4f5a3c09b013dec99caa2e76189ac6b9d447b07e106c91689b49859e0cc5bc96\")\n        /* \"contracts/Bank.sol\":1321:1328  balance */\n      dup4\n        /* \"contracts/Bank.sol\":1291:1329  IERC20(token).transfer(owner, balance) */\n      mload(0x40)\n      dup4\n      0xffffffff\n      and\n      0xe0\n      shl\n      dup2\n      mstore\n      0x04\n      add\n      tag_59\n      swap3\n      swap2\n      swap1\n      tag_14\n      jump\t// in\n    tag_59:\n      0x20\n      mload(0x40)\n      dup1\n      dup4\n      sub\n      dup2\n      0x00\n      dup8\n      gas\n      call\n      iszero\n      dup1\n      iszero\n      tag_61\n      jumpi\n      returndatasize\n      0x00\n      dup1\n      returndatacopy\n      revert(0x00, returndatasize)\n    tag_61:\n      pop\n      pop\n      pop\n      pop\n      mload(0x40)\n      returndatasize\n      not(0x1f)\n      0x1f\n      dup3\n      add\n      and\n      dup3\n      add\n      dup1\n      0x40\n      mstore\n      pop\n      dup2\n      add\n      swap1\n      tag_62\n      swap2\n      swap1\n      tag_63\n      jump\t// in\n    tag_62:\n      pop\n        /* \"contracts/Bank.sol\":1345:1374  TokenWithdraw(token, balance) */\n      0x68577e4d693c1b056a60bc4e39438810239a0bfe64869c4eb7e3baebb5f65634\n        /* \"contracts/Bank.sol\":1359:1364  token */\n      dup3\n        /* \"contracts/Bank.sol\":1366:1373  balance */\n      dup3\n        /* \"contracts/Bank.sol\":1345:1374  TokenWithdraw(token, balance) */\n      mload(0x40)\n      tag_64\n      swap3\n      swap2\n      swap1\n      tag_14\n      jump\t// in\n    tag_64:\n      mload(0x40)\n      dup1\n      swap2\n      sub\n      swap1\n      log1\n        /* \"contracts/Bank.sol\":1406:1411  owner */\n      immutable(\"0x4f5a3c09b013dec99caa2e76189ac6b9d447b07e106c91689b49859e0cc5bc96\")\n        /* \"contracts/Bank.sol\":1385:1413  selfdestruct(payable(owner)) */\n      0xffffffffffffffffffffffffffffffffffffffff\n      and\n      selfdestruct\n        /* \"contracts/Bank.sol\":1694:1925  function withdrawNFT(address token, uint256 tokenId) external onlyOwner {... */\n    tag_32:\n        /* \"contracts/Bank.sol\":631:636  owner */\n      immutable(\"0x4f5a3c09b013dec99caa2e76189ac6b9d447b07e106c91689b49859e0cc5bc96\")\n        /* \"contracts/Bank.sol\":617:636  msg.sender == owner */\n      0xffffffffffffffffffffffffffffffffffffffff\n      and\n        /* \"contracts/Bank.sol\":617:627  msg.sender */\n      caller\n        /* \"contracts/Bank.sol\":617:636  msg.sender == owner */\n      0xffffffffffffffffffffffffffffffffffffffff\n      and\n      eq\n        /* \"contracts/Bank.sol\":609:637  require(msg.sender == owner) */\n      tag_66\n      jumpi\n      0x00\n      dup1\n      revert\n    tag_66:\n        /* \"contracts/Bank.sol\":1785:1790  token */\n      dup2\n        /* \"contracts/Bank.sol\":1777:1804  IERC721(token).transferFrom */\n      0xffffffffffffffffffffffffffffffffffffffff\n      and\n      0x23b872dd\n        /* \"contracts/Bank.sol\":1813:1817  this */\n      address\n        /* \"contracts/Bank.sol\":1820:1825  owner */\n      immutable(\"0x4f5a3c09b013dec99caa2e76189ac6b9d447b07e106c91689b49859e0cc5bc96\")\n        /* \"contracts/Bank.sol\":1827:1834  tokenId */\n      dup5\n        /* \"contracts/Bank.sol\":1777:1835  IERC721(token).transferFrom(address(this), owner, tokenId) */\n      mload(0x40)\n      dup5\n      0xffffffff\n      and\n      0xe0\n      shl\n      dup2\n      mstore\n      0x04\n      add\n      tag_68\n      swap4\n      swap3\n      swap2\n      swap1\n      tag_69\n      jump\t// in\n    tag_68:\n      0x00\n      mload(0x40)\n      dup1\n      dup4\n      sub\n      dup2\n      0x00\n      dup8\n      dup1\n      extcodesize\n      iszero\n      dup1\n      iszero\n      tag_70\n      jumpi\n      0x00\n      dup1\n      revert\n    tag_70:\n      pop\n      gas\n      call\n      iszero\n      dup1\n      iszero\n      tag_72\n      jumpi\n      returndatasize\n      0x00\n      dup1\n      returndatacopy\n      revert(0x00, returndatasize)\n    tag_72:\n      pop\n      pop\n      pop\n      pop\n        /* \"contracts/Bank.sol\":1851:1878  NFTWithdraw(token, tokenId) */\n      0x8400292aab14b0a506995337c3cdb0aef18286108b663d554410899bc0951b7e\n        /* \"contracts/Bank.sol\":1863:1868  token */\n      dup3\n        /* \"contracts/Bank.sol\":1870:1877  tokenId */\n      dup3\n        /* \"contracts/Bank.sol\":1851:1878  NFTWithdraw(token, tokenId) */\n      mload(0x40)\n      tag_73\n      swap3\n      swap2\n      swap1\n      tag_14\n      jump\t// in\n    tag_73:\n      mload(0x40)\n      dup1\n      swap2\n      sub\n      swap1\n      log1\n        /* \"contracts/Bank.sol\":1910:1915  owner */\n      immutable(\"0x4f5a3c09b013dec99caa2e76189ac6b9d447b07e106c91689b49859e0cc5bc96\")\n        /* \"contracts/Bank.sol\":1889:1917  selfdestruct(payable(owner)) */\n      0xffffffffffffffffffffffffffffffffffffffff\n      and\n      selfdestruct\n        /* \"contracts/Bank.sol\":955:1150  function depositTokens(address token, uint amount) external {... */\n    tag_36:\n        /* \"contracts/Bank.sol\":1033:1038  token */\n      dup2\n        /* \"contracts/Bank.sol\":1026:1052  IERC20(token).transferFrom */\n      0xffffffffffffffffffffffffffffffffffffffff\n      and\n      0x23b872dd\n        /* \"contracts/Bank.sol\":1053:1063  msg.sender */\n      caller\n        /* \"contracts/Bank.sol\":1073:1077  this */\n      address\n        /* \"contracts/Bank.sol\":1080:1086  amount */\n      dup5\n        /* \"contracts/Bank.sol\":1026:1087  IERC20(token).transferFrom(msg.sender, payable(this), amount) */\n      mload(0x40)\n      dup5\n      0xffffffff\n      and\n      0xe0\n      shl\n      dup2\n      mstore\n      0x04\n      add\n      tag_75\n      swap4\n      swap3\n      swap2\n      swap1\n      tag_76\n      jump\t// in\n    tag_75:\n      0x20\n      mload(0x40)\n      dup1\n      dup4\n      sub\n      dup2\n      0x00\n      dup8\n      gas\n      call\n      iszero\n      dup1\n      iszero\n      tag_78\n      jumpi\n      returndatasize\n      0x00\n      dup1\n      returndatacopy\n      revert(0x00, returndatasize)\n    tag_78:\n      pop\n      pop\n      pop\n      pop\n      mload(0x40)\n      returndatasize\n      not(0x1f)\n      0x1f\n      dup3\n      add\n      and\n      dup3\n      add\n      dup1\n      0x40\n      mstore\n      pop\n      dup2\n      add\n      swap1\n      tag_79\n      swap2\n      swap1\n      tag_63\n      jump\t// in\n    tag_79:\n      pop\n        /* \"contracts/Bank.sol\":1103:1142  TokenDeposit(token, msg.sender, amount) */\n      0x98c09d9949722bae4bd0d988d4050091c3ae7ec6d51d3c6bbfe4233593944e9e\n        /* \"contracts/Bank.sol\":1116:1121  token */\n      dup3\n        /* \"contracts/Bank.sol\":1123:1133  msg.sender */\n      caller\n        /* \"contracts/Bank.sol\":1135:1141  amount */\n      dup4\n        /* \"contracts/Bank.sol\":1103:1142  TokenDeposit(token, msg.sender, amount) */\n      mload(0x40)\n      tag_80\n      swap4\n      swap3\n      swap2\n      swap1\n      tag_69\n      jump\t// in\n    tag_80:\n      mload(0x40)\n      dup1\n      swap2\n      sub\n      swap1\n      log1\n        /* \"contracts/Bank.sol\":955:1150  function depositTokens(address token, uint amount) external {... */\n      pop\n      pop\n      jump\t// out\n        /* \"contracts/Bank.sol\":201:231  address public immutable owner */\n    tag_39:\n      immutable(\"0x4f5a3c09b013dec99caa2e76189ac6b9d447b07e106c91689b49859e0cc5bc96\")\n      dup2\n      jump\t// out\n        /* \"contracts/Bank.sol\":1459:1656  function depositNFT(address token, uint256 tokenId) external {... */\n    tag_45:\n        /* \"contracts/Bank.sol\":1539:1544  token */\n      dup2\n        /* \"contracts/Bank.sol\":1531:1558  IERC721(token).transferFrom */\n      0xffffffffffffffffffffffffffffffffffffffff\n      and\n      0x23b872dd\n        /* \"contracts/Bank.sol\":1559:1569  msg.sender */\n      caller\n        /* \"contracts/Bank.sol\":1579:1583  this */\n      address\n        /* \"contracts/Bank.sol\":1586:1593  tokenId */\n      dup5\n        /* \"contracts/Bank.sol\":1531:1594  IERC721(token).transferFrom(msg.sender, address(this), tokenId) */\n      mload(0x40)\n      dup5\n      0xffffffff\n      and\n      0xe0\n      shl\n      dup2\n      mstore\n      0x04\n      add\n      tag_82\n      swap4\n      swap3\n      swap2\n      swap1\n      tag_69\n      jump\t// in\n    tag_82:\n      0x00\n      mload(0x40)\n      dup1\n      dup4\n      sub\n      dup2\n      0x00\n      dup8\n      dup1\n      extcodesize\n      iszero\n      dup1\n      iszero\n      tag_83\n      jumpi\n      0x00\n      dup1\n      revert\n    tag_83:\n      pop\n      gas\n      call\n      iszero\n      dup1\n      iszero\n      tag_85\n      jumpi\n      returndatasize\n      0x00\n      dup1\n      returndatacopy\n      revert(0x00, returndatasize)\n    tag_85:\n      pop\n      pop\n      pop\n      pop\n        /* \"contracts/Bank.sol\":1610:1648  NFTDeposit(token, msg.sender, tokenId) */\n      0x6beb9379af630d855c59b605909537f26c1d38ef62bc6645e8741985d890fdb0\n        /* \"contracts/Bank.sol\":1621:1626  token */\n      dup3\n        /* \"contracts/Bank.sol\":1628:1638  msg.sender */\n      caller\n        /* \"contracts/Bank.sol\":1640:1647  tokenId */\n      dup4\n        /* \"contracts/Bank.sol\":1610:1648  NFTDeposit(token, msg.sender, tokenId) */\n      mload(0x40)\n      tag_86\n      swap4\n      swap3\n      swap2\n      swap1\n      tag_69\n      jump\t// in\n    tag_86:\n      mload(0x40)\n      dup1\n      swap2\n      sub\n      swap1\n      log1\n        /* \"contracts/Bank.sol\":1459:1656  function depositNFT(address token, uint256 tokenId) external {... */\n      pop\n      pop\n      jump\t// out\n        /* \"#utility.yul\":7:133   */\n    tag_87:\n        /* \"#utility.yul\":44:51   */\n      0x00\n        /* \"#utility.yul\":84:126   */\n      0xffffffffffffffffffffffffffffffffffffffff\n        /* \"#utility.yul\":77:82   */\n      dup3\n        /* \"#utility.yul\":73:127   */\n      and\n        /* \"#utility.yul\":62:127   */\n      swap1\n      pop\n        /* \"#utility.yul\":7:133   */\n      swap2\n      swap1\n      pop\n      jump\t// out\n        /* \"#utility.yul\":139:235   */\n    tag_88:\n        /* \"#utility.yul\":176:183   */\n      0x00\n        /* \"#utility.yul\":205:229   */\n      tag_111\n        /* \"#utility.yul\":223:228   */\n      dup3\n        /* \"#utility.yul\":205:229   */\n      tag_87\n      jump\t// in\n    tag_111:\n        /* \"#utility.yul\":194:229   */\n      swap1\n      pop\n        /* \"#utility.yul\":139:235   */\n      swap2\n      swap1\n      pop\n      jump\t// out\n        /* \"#utility.yul\":241:359   */\n    tag_89:\n        /* \"#utility.yul\":328:352   */\n      tag_113\n        /* \"#utility.yul\":346:351   */\n      dup2\n        /* \"#utility.yul\":328:352   */\n      tag_88\n      jump\t// in\n    tag_113:\n        /* \"#utility.yul\":323:326   */\n      dup3\n        /* \"#utility.yul\":316:353   */\n      mstore\n        /* \"#utility.yul\":241:359   */\n      pop\n      pop\n      jump\t// out\n        /* \"#utility.yul\":365:442   */\n    tag_90:\n        /* \"#utility.yul\":402:409   */\n      0x00\n        /* \"#utility.yul\":431:436   */\n      dup2\n        /* \"#utility.yul\":420:436   */\n      swap1\n      pop\n        /* \"#utility.yul\":365:442   */\n      swap2\n      swap1\n      pop\n      jump\t// out\n        /* \"#utility.yul\":448:566   */\n    tag_91:\n        /* \"#utility.yul\":535:559   */\n      tag_116\n        /* \"#utility.yul\":553:558   */\n      dup2\n        /* \"#utility.yul\":535:559   */\n      tag_90\n      jump\t// in\n    tag_116:\n        /* \"#utility.yul\":530:533   */\n      dup3\n        /* \"#utility.yul\":523:560   */\n      mstore\n        /* \"#utility.yul\":448:566   */\n      pop\n      pop\n      jump\t// out\n        /* \"#utility.yul\":572:904   */\n    tag_14:\n        /* \"#utility.yul\":693:697   */\n      0x00\n        /* \"#utility.yul\":731:733   */\n      0x40\n        /* \"#utility.yul\":720:729   */\n      dup3\n        /* \"#utility.yul\":716:734   */\n      add\n        /* \"#utility.yul\":708:734   */\n      swap1\n      pop\n        /* \"#utility.yul\":744:815   */\n      tag_118\n        /* \"#utility.yul\":812:813   */\n      0x00\n        /* \"#utility.yul\":801:810   */\n      dup4\n        /* \"#utility.yul\":797:814   */\n      add\n        /* \"#utility.yul\":788:794   */\n      dup6\n        /* \"#utility.yul\":744:815   */\n      tag_89\n      jump\t// in\n    tag_118:\n        /* \"#utility.yul\":825:897   */\n      tag_119\n        /* \"#utility.yul\":893:895   */\n      0x20\n        /* \"#utility.yul\":882:891   */\n      dup4\n        /* \"#utility.yul\":878:896   */\n      add\n        /* \"#utility.yul\":869:875   */\n      dup5\n        /* \"#utility.yul\":825:897   */\n      tag_91\n      jump\t// in\n    tag_119:\n        /* \"#utility.yul\":572:904   */\n      swap4\n      swap3\n      pop\n      pop\n      pop\n      jump\t// out\n        /* \"#utility.yul\":910:1132   */\n    tag_19:\n        /* \"#utility.yul\":1003:1007   */\n      0x00\n        /* \"#utility.yul\":1041:1043   */\n      0x20\n        /* \"#utility.yul\":1030:1039   */\n      dup3\n        /* \"#utility.yul\":1026:1044   */\n      add\n        /* \"#utility.yul\":1018:1044   */\n      swap1\n      pop\n        /* \"#utility.yul\":1054:1125   */\n      tag_121\n        /* \"#utility.yul\":1122:1123   */\n      0x00\n        /* \"#utility.yul\":1111:1120   */\n      dup4\n        /* \"#utility.yul\":1107:1124   */\n      add\n        /* \"#utility.yul\":1098:1104   */\n      dup5\n        /* \"#utility.yul\":1054:1125   */\n      tag_91\n      jump\t// in\n    tag_121:\n        /* \"#utility.yul\":910:1132   */\n      swap3\n      swap2\n      pop\n      pop\n      jump\t// out\n        /* \"#utility.yul\":1219:1336   */\n    tag_93:\n        /* \"#utility.yul\":1328:1329   */\n      0x00\n        /* \"#utility.yul\":1325:1326   */\n      dup1\n        /* \"#utility.yul\":1318:1330   */\n      revert\n        /* \"#utility.yul\":1465:1587   */\n    tag_95:\n        /* \"#utility.yul\":1538:1562   */\n      tag_126\n        /* \"#utility.yul\":1556:1561   */\n      dup2\n        /* \"#utility.yul\":1538:1562   */\n      tag_88\n      jump\t// in\n    tag_126:\n        /* \"#utility.yul\":1531:1536   */\n      dup2\n        /* \"#utility.yul\":1528:1563   */\n      eq\n        /* \"#utility.yul\":1518:1581   */\n      tag_127\n      jumpi\n        /* \"#utility.yul\":1577:1578   */\n      0x00\n        /* \"#utility.yul\":1574:1575   */\n      dup1\n        /* \"#utility.yul\":1567:1579   */\n      revert\n        /* \"#utility.yul\":1518:1581   */\n    tag_127:\n        /* \"#utility.yul\":1465:1587   */\n      pop\n      jump\t// out\n        /* \"#utility.yul\":1593:1732   */\n    tag_96:\n        /* \"#utility.yul\":1639:1644   */\n      0x00\n        /* \"#utility.yul\":1677:1683   */\n      dup2\n        /* \"#utility.yul\":1664:1684   */\n      calldataload\n        /* \"#utility.yul\":1655:1684   */\n      swap1\n      pop\n        /* \"#utility.yul\":1693:1726   */\n      tag_129\n        /* \"#utility.yul\":1720:1725   */\n      dup2\n        /* \"#utility.yul\":1693:1726   */\n      tag_95\n      jump\t// in\n    tag_129:\n        /* \"#utility.yul\":1593:1732   */\n      swap3\n      swap2\n      pop\n      pop\n      jump\t// out\n        /* \"#utility.yul\":1738:2067   */\n    tag_26:\n        /* \"#utility.yul\":1797:1803   */\n      0x00\n        /* \"#utility.yul\":1846:1848   */\n      0x20\n        /* \"#utility.yul\":1834:1843   */\n      dup3\n        /* \"#utility.yul\":1825:1832   */\n      dup5\n        /* \"#utility.yul\":1821:1844   */\n      sub\n        /* \"#utility.yul\":1817:1849   */\n      slt\n        /* \"#utility.yul\":1814:1933   */\n      iszero\n      tag_131\n      jumpi\n        /* \"#utility.yul\":1852:1931   */\n      tag_132\n      tag_93\n      jump\t// in\n    tag_132:\n        /* \"#utility.yul\":1814:1933   */\n    tag_131:\n        /* \"#utility.yul\":1972:1973   */\n      0x00\n        /* \"#utility.yul\":1997:2050   */\n      tag_133\n        /* \"#utility.yul\":2042:2049   */\n      dup5\n        /* \"#utility.yul\":2033:2039   */\n      dup3\n        /* \"#utility.yul\":2022:2031   */\n      dup6\n        /* \"#utility.yul\":2018:2040   */\n      add\n        /* \"#utility.yul\":1997:2050   */\n      tag_96\n      jump\t// in\n    tag_133:\n        /* \"#utility.yul\":1987:2050   */\n      swap2\n      pop\n        /* \"#utility.yul\":1943:2060   */\n      pop\n        /* \"#utility.yul\":1738:2067   */\n      swap3\n      swap2\n      pop\n      pop\n      jump\t// out\n        /* \"#utility.yul\":2073:2195   */\n    tag_97:\n        /* \"#utility.yul\":2146:2170   */\n      tag_135\n        /* \"#utility.yul\":2164:2169   */\n      dup2\n        /* \"#utility.yul\":2146:2170   */\n      tag_90\n      jump\t// in\n    tag_135:\n        /* \"#utility.yul\":2139:2144   */\n      dup2\n        /* \"#utility.yul\":2136:2171   */\n      eq\n        /* \"#utility.yul\":2126:2189   */\n      tag_136\n      jumpi\n        /* \"#utility.yul\":2185:2186   */\n      0x00\n        /* \"#utility.yul\":2182:2183   */\n      dup1\n        /* \"#utility.yul\":2175:2187   */\n      revert\n        /* \"#utility.yul\":2126:2189   */\n    tag_136:\n        /* \"#utility.yul\":2073:2195   */\n      pop\n      jump\t// out\n        /* \"#utility.yul\":2201:2340   */\n    tag_98:\n        /* \"#utility.yul\":2247:2252   */\n      0x00\n        /* \"#utility.yul\":2285:2291   */\n      dup2\n        /* \"#utility.yul\":2272:2292   */\n      calldataload\n        /* \"#utility.yul\":2263:2292   */\n      swap1\n      pop\n        /* \"#utility.yul\":2301:2334   */\n      tag_138\n        /* \"#utility.yul\":2328:2333   */\n      dup2\n        /* \"#utility.yul\":2301:2334   */\n      tag_97\n      jump\t// in\n    tag_138:\n        /* \"#utility.yul\":2201:2340   */\n      swap3\n      swap2\n      pop\n      pop\n      jump\t// out\n        /* \"#utility.yul\":2346:2820   */\n    tag_31:\n        /* \"#utility.yul\":2414:2420   */\n      0x00\n        /* \"#utility.yul\":2422:2428   */\n      dup1\n        /* \"#utility.yul\":2471:2473   */\n      0x40\n        /* \"#utility.yul\":2459:2468   */\n      dup4\n        /* \"#utility.yul\":2450:2457   */\n      dup6\n        /* \"#utility.yul\":2446:2469   */\n      sub\n        /* \"#utility.yul\":2442:2474   */\n      slt\n        /* \"#utility.yul\":2439:2558   */\n      iszero\n      tag_140\n      jumpi\n        /* \"#utility.yul\":2477:2556   */\n      tag_141\n      tag_93\n      jump\t// in\n    tag_141:\n        /* \"#utility.yul\":2439:2558   */\n    tag_140:\n        /* \"#utility.yul\":2597:2598   */\n      0x00\n        /* \"#utility.yul\":2622:2675   */\n      tag_142\n        /* \"#utility.yul\":2667:2674   */\n      dup6\n        /* \"#utility.yul\":2658:2664   */\n      dup3\n        /* \"#utility.yul\":2647:2656   */\n      dup7\n        /* \"#utility.yul\":2643:2665   */\n      add\n        /* \"#utility.yul\":2622:2675   */\n      tag_96\n      jump\t// in\n    tag_142:\n        /* \"#utility.yul\":2612:2675   */\n      swap3\n      pop\n        /* \"#utility.yul\":2568:2685   */\n      pop\n        /* \"#utility.yul\":2724:2726   */\n      0x20\n        /* \"#utility.yul\":2750:2803   */\n      tag_143\n        /* \"#utility.yul\":2795:2802   */\n      dup6\n        /* \"#utility.yul\":2786:2792   */\n      dup3\n        /* \"#utility.yul\":2775:2784   */\n      dup7\n        /* \"#utility.yul\":2771:2793   */\n      add\n        /* \"#utility.yul\":2750:2803   */\n      tag_98\n      jump\t// in\n    tag_143:\n        /* \"#utility.yul\":2740:2803   */\n      swap2\n      pop\n        /* \"#utility.yul\":2695:2813   */\n      pop\n        /* \"#utility.yul\":2346:2820   */\n      swap3\n      pop\n      swap3\n      swap1\n      pop\n      jump\t// out\n        /* \"#utility.yul\":2826:3048   */\n    tag_41:\n        /* \"#utility.yul\":2919:2923   */\n      0x00\n        /* \"#utility.yul\":2957:2959   */\n      0x20\n        /* \"#utility.yul\":2946:2955   */\n      dup3\n        /* \"#utility.yul\":2942:2960   */\n      add\n        /* \"#utility.yul\":2934:2960   */\n      swap1\n      pop\n        /* \"#utility.yul\":2970:3041   */\n      tag_145\n        /* \"#utility.yul\":3038:3039   */\n      0x00\n        /* \"#utility.yul\":3027:3036   */\n      dup4\n        /* \"#utility.yul\":3023:3040   */\n      add\n        /* \"#utility.yul\":3014:3020   */\n      dup5\n        /* \"#utility.yul\":2970:3041   */\n      tag_89\n      jump\t// in\n    tag_145:\n        /* \"#utility.yul\":2826:3048   */\n      swap3\n      swap2\n      pop\n      pop\n      jump\t// out\n        /* \"#utility.yul\":3054:3197   */\n    tag_99:\n        /* \"#utility.yul\":3111:3116   */\n      0x00\n        /* \"#utility.yul\":3142:3148   */\n      dup2\n        /* \"#utility.yul\":3136:3149   */\n      mload\n        /* \"#utility.yul\":3127:3149   */\n      swap1\n      pop\n        /* \"#utility.yul\":3158:3191   */\n      tag_147\n        /* \"#utility.yul\":3185:3190   */\n      dup2\n        /* \"#utility.yul\":3158:3191   */\n      tag_97\n      jump\t// in\n    tag_147:\n        /* \"#utility.yul\":3054:3197   */\n      swap3\n      swap2\n      pop\n      pop\n      jump\t// out\n        /* \"#utility.yul\":3203:3554   */\n    tag_58:\n        /* \"#utility.yul\":3273:3279   */\n      0x00\n        /* \"#utility.yul\":3322:3324   */\n      0x20\n        /* \"#utility.yul\":3310:3319   */\n      dup3\n        /* \"#utility.yul\":3301:3308   */\n      dup5\n        /* \"#utility.yul\":3297:3320   */\n      sub\n        /* \"#utility.yul\":3293:3325   */\n      slt\n        /* \"#utility.yul\":3290:3409   */\n      iszero\n      tag_149\n      jumpi\n        /* \"#utility.yul\":3328:3407   */\n      tag_150\n      tag_93\n      jump\t// in\n    tag_150:\n        /* \"#utility.yul\":3290:3409   */\n    tag_149:\n        /* \"#utility.yul\":3448:3449   */\n      0x00\n        /* \"#utility.yul\":3473:3537   */\n      tag_151\n        /* \"#utility.yul\":3529:3536   */\n      dup5\n        /* \"#utility.yul\":3520:3526   */\n      dup3\n        /* \"#utility.yul\":3509:3518   */\n      dup6\n        /* \"#utility.yul\":3505:3527   */\n      add\n        /* \"#utility.yul\":3473:3537   */\n      tag_99\n      jump\t// in\n    tag_151:\n        /* \"#utility.yul\":3463:3537   */\n      swap2\n      pop\n        /* \"#utility.yul\":3419:3547   */\n      pop\n        /* \"#utility.yul\":3203:3554   */\n      swap3\n      swap2\n      pop\n      pop\n      jump\t// out\n        /* \"#utility.yul\":3560:3650   */\n    tag_100:\n        /* \"#utility.yul\":3594:3601   */\n      0x00\n        /* \"#utility.yul\":3637:3642   */\n      dup2\n        /* \"#utility.yul\":3630:3643   */\n      iszero\n        /* \"#utility.yul\":3623:3644   */\n      iszero\n        /* \"#utility.yul\":3612:3644   */\n      swap1\n      pop\n        /* \"#utility.yul\":3560:3650   */\n      swap2\n      swap1\n      pop\n      jump\t// out\n        /* \"#utility.yul\":3656:3772   */\n    tag_101:\n        /* \"#utility.yul\":3726:3747   */\n      tag_154\n        /* \"#utility.yul\":3741:3746   */\n      dup2\n        /* \"#utility.yul\":3726:3747   */\n      tag_100\n      jump\t// in\n    tag_154:\n        /* \"#utility.yul\":3719:3724   */\n      dup2\n        /* \"#utility.yul\":3716:3748   */\n      eq\n        /* \"#utility.yul\":3706:3766   */\n      tag_155\n      jumpi\n        /* \"#utility.yul\":3762:3763   */\n      0x00\n        /* \"#utility.yul\":3759:3760   */\n      dup1\n        /* \"#utility.yul\":3752:3764   */\n      revert\n        /* \"#utility.yul\":3706:3766   */\n    tag_155:\n        /* \"#utility.yul\":3656:3772   */\n      pop\n      jump\t// out\n        /* \"#utility.yul\":3778:3915   */\n    tag_102:\n        /* \"#utility.yul\":3832:3837   */\n      0x00\n        /* \"#utility.yul\":3863:3869   */\n      dup2\n        /* \"#utility.yul\":3857:3870   */\n      mload\n        /* \"#utility.yul\":3848:3870   */\n      swap1\n      pop\n        /* \"#utility.yul\":3879:3909   */\n      tag_157\n        /* \"#utility.yul\":3903:3908   */\n      dup2\n        /* \"#utility.yul\":3879:3909   */\n      tag_101\n      jump\t// in\n    tag_157:\n        /* \"#utility.yul\":3778:3915   */\n      swap3\n      swap2\n      pop\n      pop\n      jump\t// out\n        /* \"#utility.yul\":3921:4266   */\n    tag_63:\n        /* \"#utility.yul\":3988:3994   */\n      0x00\n        /* \"#utility.yul\":4037:4039   */\n      0x20\n        /* \"#utility.yul\":4025:4034   */\n      dup3\n        /* \"#utility.yul\":4016:4023   */\n      dup5\n        /* \"#utility.yul\":4012:4035   */\n      sub\n        /* \"#utility.yul\":4008:4040   */\n      slt\n        /* \"#utility.yul\":4005:4124   */\n      iszero\n      tag_159\n      jumpi\n        /* \"#utility.yul\":4043:4122   */\n      tag_160\n      tag_93\n      jump\t// in\n    tag_160:\n        /* \"#utility.yul\":4005:4124   */\n    tag_159:\n        /* \"#utility.yul\":4163:4164   */\n      0x00\n        /* \"#utility.yul\":4188:4249   */\n      tag_161\n        /* \"#utility.yul\":4241:4248   */\n      dup5\n        /* \"#utility.yul\":4232:4238   */\n      dup3\n        /* \"#utility.yul\":4221:4230   */\n      dup6\n        /* \"#utility.yul\":4217:4239   */\n      add\n        /* \"#utility.yul\":4188:4249   */\n      tag_102\n      jump\t// in\n    tag_161:\n        /* \"#utility.yul\":4178:4249   */\n      swap2\n      pop\n        /* \"#utility.yul\":4134:4259   */\n      pop\n        /* \"#utility.yul\":3921:4266   */\n      swap3\n      swap2\n      pop\n      pop\n      jump\t// out\n        /* \"#utility.yul\":4272:4714   */\n    tag_69:\n        /* \"#utility.yul\":4421:4425   */\n      0x00\n        /* \"#utility.yul\":4459:4461   */\n      0x60\n        /* \"#utility.yul\":4448:4457   */\n      dup3\n        /* \"#utility.yul\":4444:4462   */\n      add\n        /* \"#utility.yul\":4436:4462   */\n      swap1\n      pop\n        /* \"#utility.yul\":4472:4543   */\n      tag_163\n        /* \"#utility.yul\":4540:4541   */\n      0x00\n        /* \"#utility.yul\":4529:4538   */\n      dup4\n        /* \"#utility.yul\":4525:4542   */\n      add\n        /* \"#utility.yul\":4516:4522   */\n      dup7\n        /* \"#utility.yul\":4472:4543   */\n      tag_89\n      jump\t// in\n    tag_163:\n        /* \"#utility.yul\":4553:4625   */\n      tag_164\n        /* \"#utility.yul\":4621:4623   */\n      0x20\n        /* \"#utility.yul\":4610:4619   */\n      dup4\n        /* \"#utility.yul\":4606:4624   */\n      add\n        /* \"#utility.yul\":4597:4603   */\n      dup6\n        /* \"#utility.yul\":4553:4625   */\n      tag_89\n      jump\t// in\n    tag_164:\n        /* \"#utility.yul\":4635:4707   */\n      tag_165\n        /* \"#utility.yul\":4703:4705   */\n      0x40\n        /* \"#utility.yul\":4692:4701   */\n      dup4\n        /* \"#utility.yul\":4688:4706   */\n      add\n        /* \"#utility.yul\":4679:4685   */\n      dup5\n        /* \"#utility.yul\":4635:4707   */\n      tag_91\n      jump\t// in\n    tag_165:\n        /* \"#utility.yul\":4272:4714   */\n      swap5\n      swap4\n      pop\n      pop\n      pop\n      pop\n      jump\t// out\n        /* \"#utility.yul\":4720:4780   */\n    tag_103:\n        /* \"#utility.yul\":4748:4751   */\n      0x00\n        /* \"#utility.yul\":4769:4774   */\n      dup2\n        /* \"#utility.yul\":4762:4774   */\n      swap1\n      pop\n        /* \"#utility.yul\":4720:4780   */\n      swap2\n      swap1\n      pop\n      jump\t// out\n        /* \"#utility.yul\":4786:4928   */\n    tag_104:\n        /* \"#utility.yul\":4836:4845   */\n      0x00\n        /* \"#utility.yul\":4869:4922   */\n      tag_168\n        /* \"#utility.yul\":4887:4921   */\n      tag_169\n        /* \"#utility.yul\":4896:4920   */\n      tag_170\n        /* \"#utility.yul\":4914:4919   */\n      dup5\n        /* \"#utility.yul\":4896:4920   */\n      tag_87\n      jump\t// in\n    tag_170:\n        /* \"#utility.yul\":4887:4921   */\n      tag_103\n      jump\t// in\n    tag_169:\n        /* \"#utility.yul\":4869:4922   */\n      tag_87\n      jump\t// in\n    tag_168:\n        /* \"#utility.yul\":4856:4922   */\n      swap1\n      pop\n        /* \"#utility.yul\":4786:4928   */\n      swap2\n      swap1\n      pop\n      jump\t// out\n        /* \"#utility.yul\":4934:5060   */\n    tag_105:\n        /* \"#utility.yul\":4984:4993   */\n      0x00\n        /* \"#utility.yul\":5017:5054   */\n      tag_172\n        /* \"#utility.yul\":5048:5053   */\n      dup3\n        /* \"#utility.yul\":5017:5054   */\n      tag_104\n      jump\t// in\n    tag_172:\n        /* \"#utility.yul\":5004:5054   */\n      swap1\n      pop\n        /* \"#utility.yul\":4934:5060   */\n      swap2\n      swap1\n      pop\n      jump\t// out\n        /* \"#utility.yul\":5066:5200   */\n    tag_106:\n        /* \"#utility.yul\":5124:5133   */\n      0x00\n        /* \"#utility.yul\":5157:5194   */\n      tag_174\n        /* \"#utility.yul\":5188:5193   */\n      dup3\n        /* \"#utility.yul\":5157:5194   */\n      tag_105\n      jump\t// in\n    tag_174:\n        /* \"#utility.yul\":5144:5194   */\n      swap1\n      pop\n        /* \"#utility.yul\":5066:5200   */\n      swap2\n      swap1\n      pop\n      jump\t// out\n        /* \"#utility.yul\":5206:5353   */\n    tag_107:\n        /* \"#utility.yul\":5301:5346   */\n      tag_176\n        /* \"#utility.yul\":5340:5345   */\n      dup2\n        /* \"#utility.yul\":5301:5346   */\n      tag_106\n      jump\t// in\n    tag_176:\n        /* \"#utility.yul\":5296:5299   */\n      dup3\n        /* \"#utility.yul\":5289:5347   */\n      mstore\n        /* \"#utility.yul\":5206:5353   */\n      pop\n      pop\n      jump\t// out\n        /* \"#utility.yul\":5359:5817   */\n    tag_76:\n        /* \"#utility.yul\":5516:5520   */\n      0x00\n        /* \"#utility.yul\":5554:5556   */\n      0x60\n        /* \"#utility.yul\":5543:5552   */\n      dup3\n        /* \"#utility.yul\":5539:5557   */\n      add\n        /* \"#utility.yul\":5531:5557   */\n      swap1\n      pop\n        /* \"#utility.yul\":5567:5638   */\n      tag_178\n        /* \"#utility.yul\":5635:5636   */\n      0x00\n        /* \"#utility.yul\":5624:5633   */\n      dup4\n        /* \"#utility.yul\":5620:5637   */\n      add\n        /* \"#utility.yul\":5611:5617   */\n      dup7\n        /* \"#utility.yul\":5567:5638   */\n      tag_89\n      jump\t// in\n    tag_178:\n        /* \"#utility.yul\":5648:5728   */\n      tag_179\n        /* \"#utility.yul\":5724:5726   */\n      0x20\n        /* \"#utility.yul\":5713:5722   */\n      dup4\n        /* \"#utility.yul\":5709:5727   */\n      add\n        /* \"#utility.yul\":5700:5706   */\n      dup6\n        /* \"#utility.yul\":5648:5728   */\n      tag_107\n      jump\t// in\n    tag_179:\n        /* \"#utility.yul\":5738:5810   */\n      tag_180\n        /* \"#utility.yul\":5806:5808   */\n      0x40\n        /* \"#utility.yul\":5795:5804   */\n      dup4\n        /* \"#utility.yul\":5791:5809   */\n      add\n        /* \"#utility.yul\":5782:5788   */\n      dup5\n        /* \"#utility.yul\":5738:5810   */\n      tag_91\n      jump\t// in\n    tag_180:\n        /* \"#utility.yul\":5359:5817   */\n      swap5\n      swap4\n      pop\n      pop\n      pop\n      pop\n      jump\t// out\n\n    auxdata: 0xa2646970667358221220c4b3b73241005c0c2758e5325a644d79839fe3dee36f4f975bf93786d6e33ba864736f6c634300081a0033\n}\n",
				"bytecode": {
					"linkReferences": {},
					"object": "60a0604052348015600e575f80fd5b503373ffffffffffffffffffffffffffffffffffffffff1660808173ffffffffffffffffffffffffffffffffffffffff1681525050608051610a576100935f395f81816101ca01528181610258015281816102910152818161037f0152818161043801528181610471015281816104e50152818161058b01526106810152610a575ff3fe608060405260043610610073575f3560e01c80636088e93a1161004d5780636088e93a1461011f57806366168bd7146101475780638da5cb5b1461016f5780639b5b9b1814610199576100b3565b806312065fe0146100b75780633ccfd60b146100e157806349df728c146100f7576100b3565b366100b3577fe1fffcc4923d04b559f4d29a8bfc6cda04eb5b0d3c460751c2402c5c5cc9109c33346040516100a99291906107a3565b60405180910390a1005b5f80fd5b3480156100c2575f80fd5b506100cb6101c1565b6040516100d891906107ca565b60405180910390f35b3480156100ec575f80fd5b506100f56101c8565b005b348015610102575f80fd5b5061011d60048036038101906101189190610811565b61028f565b005b34801561012a575f80fd5b5061014560048036038101906101409190610866565b61046f565b005b348015610152575f80fd5b5061016d60048036038101906101689190610866565b6105c2565b005b34801561017a575f80fd5b5061018361067f565b60405161019091906108a4565b60405180910390f35b3480156101a4575f80fd5b506101bf60048036038101906101ba9190610866565b6106a3565b005b5f47905090565b7f000000000000000000000000000000000000000000000000000000000000000073ffffffffffffffffffffffffffffffffffffffff163373ffffffffffffffffffffffffffffffffffffffff161461021f575f80fd5b7f5b6b431d4476a211bb7d41c20d1aab9ae2321deee0d20be3d9fc9b1093fa6e3d4760405161024e91906107ca565b60405180910390a17f000000000000000000000000000000000000000000000000000000000000000073ffffffffffffffffffffffffffffffffffffffff16ff5b7f000000000000000000000000000000000000000000000000000000000000000073ffffffffffffffffffffffffffffffffffffffff163373ffffffffffffffffffffffffffffffffffffffff16146102e6575f80fd5b5f8173ffffffffffffffffffffffffffffffffffffffff166370a08231306040518263ffffffff1660e01b815260040161032091906108a4565b602060405180830381865afa15801561033b573d5f803e3d5ffd5b505050506040513d601f19601f8201168201806040525081019061035f91906108d1565b90508173ffffffffffffffffffffffffffffffffffffffff1663a9059cbb7f0000000000000000000000000000000000000000000000000000000000000000836040518363ffffffff1660e01b81526004016103bc9291906107a3565b6020604051808303815f875af11580156103d8573d5f803e3d5ffd5b505050506040513d601f19601f820116820180604052508101906103fc9190610931565b507f68577e4d693c1b056a60bc4e39438810239a0bfe64869c4eb7e3baebb5f65634828260405161042e9291906107a3565b60405180910390a17f000000000000000000000000000000000000000000000000000000000000000073ffffffffffffffffffffffffffffffffffffffff16ff5b7f000000000000000000000000000000000000000000000000000000000000000073ffffffffffffffffffffffffffffffffffffffff163373ffffffffffffffffffffffffffffffffffffffff16146104c6575f80fd5b8173ffffffffffffffffffffffffffffffffffffffff166323b872dd307f0000000000000000000000000000000000000000000000000000000000000000846040518463ffffffff1660e01b81526004016105239392919061095c565b5f604051808303815f87803b15801561053a575f80fd5b505af115801561054c573d5f803e3d5ffd5b505050507f8400292aab14b0a506995337c3cdb0aef18286108b663d554410899bc0951b7e82826040516105819291906107a3565b60405180910390a17f000000000000000000000000000000000000000000000000000000000000000073ffffffffffffffffffffffffffffffffffffffff16ff5b8173ffffffffffffffffffffffffffffffffffffffff166323b872dd3330846040518463ffffffff1660e01b81526004016105ff939291906109ec565b6020604051808303815f875af115801561061b573d5f803e3d5ffd5b505050506040513d601f19601f8201168201806040525081019061063f9190610931565b507f98c09d9949722bae4bd0d988d4050091c3ae7ec6d51d3c6bbfe4233593944e9e8233836040516106739392919061095c565b60405180910390a15050565b7f000000000000000000000000000000000000000000000000000000000000000081565b8173ffffffffffffffffffffffffffffffffffffffff166323b872dd3330846040518463ffffffff1660e01b81526004016106e09392919061095c565b5f604051808303815f87803b1580156106f7575f80fd5b505af1158015610709573d5f803e3d5ffd5b505050507f6beb9379af630d855c59b605909537f26c1d38ef62bc6645e8741985d890fdb08233836040516107409392919061095c565b60405180910390a15050565b5f73ffffffffffffffffffffffffffffffffffffffff82169050919050565b5f6107758261074c565b9050919050565b6107858161076b565b82525050565b5f819050919050565b61079d8161078b565b82525050565b5f6040820190506107b65f83018561077c565b6107c36020830184610794565b9392505050565b5f6020820190506107dd5f830184610794565b92915050565b5f80fd5b6107f08161076b565b81146107fa575f80fd5b50565b5f8135905061080b816107e7565b92915050565b5f60208284031215610826576108256107e3565b5b5f610833848285016107fd565b91505092915050565b6108458161078b565b811461084f575f80fd5b50565b5f813590506108608161083c565b92915050565b5f806040838503121561087c5761087b6107e3565b5b5f610889858286016107fd565b925050602061089a85828601610852565b9150509250929050565b5f6020820190506108b75f83018461077c565b92915050565b5f815190506108cb8161083c565b92915050565b5f602082840312156108e6576108e56107e3565b5b5f6108f3848285016108bd565b91505092915050565b5f8115159050919050565b610910816108fc565b811461091a575f80fd5b50565b5f8151905061092b81610907565b92915050565b5f60208284031215610946576109456107e3565b5b5f6109538482850161091d565b91505092915050565b5f60608201905061096f5f83018661077c565b61097c602083018561077c565b6109896040830184610794565b949350505050565b5f819050919050565b5f6109b46109af6109aa8461074c565b610991565b61074c565b9050919050565b5f6109c58261099a565b9050919050565b5f6109d6826109bb565b9050919050565b6109e6816109cc565b82525050565b5f6060820190506109ff5f83018661077c565b610a0c60208301856109dd565b610a196040830184610794565b94935050505056fea2646970667358221220c4b3b73241005c0c2758e5325a644d79839fe3dee36f4f975bf93786d6e33ba864736f6c634300081a0033",
					"opcodes": "PUSH1 0xA0 PUSH1 0x40 MSTORE CALLVALUE DUP1 ISZERO PUSH1 0xE JUMPI PUSH0 DUP1 REVERT JUMPDEST POP CALLER PUSH20 0xFFFFFFFFFFFFFFFFFFFFFFFFFFFFFFFFFFFFFFFF AND PUSH1 0x80 DUP2 PUSH20 0xFFFFFFFFFFFFFFFFFFFFFFFFFFFFFFFFFFFFFFFF AND DUP2 MSTORE POP POP PUSH1 0x80 MLOAD PUSH2 0xA57 PUSH2 0x93 PUSH0 CODECOPY PUSH0 DUP2 DUP2 PUSH2 0x1CA ADD MSTORE DUP2 DUP2 PUSH2 0x258 ADD MSTORE DUP2 DUP2 PUSH2 0x291 ADD MSTORE DUP2 DUP2 PUSH2 0x37F ADD MSTORE DUP2 DUP2 PUSH2 0x438 ADD MSTORE DUP2 DUP2 PUSH2 0x471 ADD MSTORE DUP2 DUP2 PUSH2 0x4E5 ADD MSTORE DUP2 DUP2 PUSH2 0x58B ADD MSTORE PUSH2 0x681 ADD MSTORE PUSH2 0xA57 PUSH0 RETURN INVALID PUSH1 0x80 PUSH1 0x40 MSTORE PUSH1 0x4 CALLDATASIZE LT PUSH2 0x73 JUMPI PUSH0 CALLDATALOAD PUSH1 0xE0 SHR DUP1 PUSH4 0x6088E93A GT PUSH2 0x4D JUMPI DUP1 PUSH4 0x6088E93A EQ PUSH2 0x11F JUMPI DUP1 PUSH4 0x66168BD7 EQ PUSH2 0x147 JUMPI DUP1 PUSH4 0x8DA5CB5B EQ PUSH2 0x16F JUMPI DUP1 PUSH4 0x9B5B9B18 EQ PUSH2 0x199 JUMPI PUSH2 0xB3 JUMP JUMPDEST DUP1 PUSH4 0x12065FE0 EQ PUSH2 0xB7 JUMPI DUP1 PUSH4 0x3CCFD60B EQ PUSH2 0xE1 JUMPI DUP1 PUSH4 0x49DF728C EQ PUSH2 0xF7 JUMPI PUSH2 0xB3 JUMP JUMPDEST CALLDATASIZE PUSH2 0xB3 JUMPI PUSH32 0xE1FFFCC4923D04B559F4D29A8BFC6CDA04EB5B0D3C460751C2402C5C5CC9109C CALLER CALLVALUE PUSH1 0x40 MLOAD PUSH2 0xA9 SWAP3 SWAP2 SWAP1 PUSH2 0x7A3 JUMP JUMPDEST PUSH1 0x40 MLOAD DUP1 SWAP2 SUB SWAP1 LOG1 STOP JUMPDEST PUSH0 DUP1 REVERT JUMPDEST CALLVALUE DUP1 ISZERO PUSH2 0xC2 JUMPI PUSH0 DUP1 REVERT JUMPDEST POP PUSH2 0xCB PUSH2 0x1C1 JUMP JUMPDEST PUSH1 0x40 MLOAD PUSH2 0xD8 SWAP2 SWAP1 PUSH2 0x7CA JUMP JUMPDEST PUSH1 0x40 MLOAD DUP1 SWAP2 SUB SWAP1 RETURN JUMPDEST CALLVALUE DUP1 ISZERO PUSH2 0xEC JUMPI PUSH0 DUP1 REVERT JUMPDEST POP PUSH2 0xF5 PUSH2 0x1C8 JUMP JUMPDEST STOP JUMPDEST CALLVALUE DUP1 ISZERO PUSH2 0x102 JUMPI PUSH0 DUP1 REVERT JUMPDEST POP PUSH2 0x11D PUSH1 0x4 DUP1 CALLDATASIZE SUB DUP2 ADD SWAP1 PUSH2 0x118 SWAP2 SWAP1 PUSH2 0x811 JUMP JUMPDEST PUSH2 0x28F JUMP JUMPDEST STOP JUMPDEST CALLVALUE DUP1 ISZERO PUSH2 0x12A JUMPI PUSH0 DUP1 REVERT JUMPDEST POP PUSH2 0x145 PUSH1 0x4 DUP1 CALLDATASIZE SUB DUP2 ADD SWAP1 PUSH2 0x140 SWAP2 SWAP1 PUSH2 0x866 JUMP JUMPDEST PUSH2 0x46F JUMP JUMPDEST STOP JUMPDEST CALLVALUE DUP1 ISZERO PUSH2 0x152 JUMPI PUSH0 DUP1 REVERT JUMPDEST POP PUSH2 0x16D PUSH1 0x4 DUP1 CALLDATASIZE SUB DUP2 ADD SWAP1 PUSH2 0x168 SWAP2 SWAP1 PUSH2 0x866 JUMP JUMPDEST PUSH2 0x5C2 JUMP JUMPDEST STOP JUMPDEST CALLVALUE DUP1 ISZERO PUSH2 0x17A JUMPI PUSH0 DUP1 REVERT JUMPDEST POP PUSH2 0x183 PUSH2 0x67F JUMP JUMPDEST PUSH1 0x40 MLOAD PUSH2 0x190 SWAP2 SWAP1 PUSH2 0x8A4 JUMP JUMPDEST PUSH1 0x40 MLOAD DUP1 SWAP2 SUB SWAP1 RETURN JUMPDEST CALLVALUE DUP1 ISZERO PUSH2 0x1A4 JUMPI PUSH0 DUP1 REVERT JUMPDEST POP PUSH2 0x1BF PUSH1 0x4 DUP1 CALLDATASIZE SUB DUP2 ADD SWAP1 PUSH2 0x1BA SWAP2 SWAP1 PUSH2 0x866 JUMP JUMPDEST PUSH2 0x6A3 JUMP JUMPDEST STOP JUMPDEST PUSH0 SELFBALANCE SWAP1 POP SWAP1 JUMP JUMPDEST PUSH32 0x0 PUSH20 0xFFFFFFFFFFFFFFFFFFFFFFFFFFFFFFFFFFFFFFFF AND CALLER PUSH20 0xFFFFFFFFFFFFFFFFFFFFFFFFFFFFFFFFFFFFFFFF AND EQ PUSH2 0x21F JUMPI PUSH0 DUP1 REVERT JUMPDEST PUSH32 0x5B6B431D4476A211BB7D41C20D1AAB9AE2321DEEE0D20BE3D9FC9B1093FA6E3D SELFBALANCE PUSH1 0x40 MLOAD PUSH2 0x24E SWAP2 SWAP1 PUSH2 0x7CA JUMP JUMPDEST PUSH1 0x40 MLOAD DUP1 SWAP2 SUB SWAP1 LOG1 PUSH32 0x0 PUSH20 0xFFFFFFFFFFFFFFFFFFFFFFFFFFFFFFFFFFFFFFFF AND SELFDESTRUCT JUMPDEST PUSH32 0x0 PUSH20 0xFFFFFFFFFFFFFFFFFFFFFFFFFFFFFFFFFFFFFFFF AND CALLER PUSH20 0xFFFFFFFFFFFFFFFFFFFFFFFFFFFFFFFFFFFFFFFF AND EQ PUSH2 0x2E6 JUMPI PUSH0 DUP1 REVERT JUMPDEST PUSH0 DUP2 PUSH20 0xFFFFFFFFFFFFFFFFFFFFFFFFFFFFFFFFFFFFFFFF AND PUSH4 0x70A08231 ADDRESS PUSH1 0x40 MLOAD DUP3 PUSH4 0xFFFFFFFF AND PUSH1 0xE0 SHL DUP2 MSTORE PUSH1 0x4 ADD PUSH2 0x320 SWAP2 SWAP1 PUSH2 0x8A4 JUMP JUMPDEST PUSH1 0x20 PUSH1 0x40 MLOAD DUP1 DUP4 SUB DUP2 DUP7 GAS STATICCALL ISZERO DUP1 ISZERO PUSH2 0x33B JUMPI RETURNDATASIZE PUSH0 DUP1 RETURNDATACOPY RETURNDATASIZE PUSH0 REVERT JUMPDEST POP POP POP POP PUSH1 0x40 MLOAD RETURNDATASIZE PUSH1 0x1F NOT PUSH1 0x1F DUP3 ADD AND DUP3 ADD DUP1 PUSH1 0x40 MSTORE POP DUP2 ADD SWAP1 PUSH2 0x35F SWAP2 SWAP1 PUSH2 0x8D1 JUMP JUMPDEST SWAP1 POP DUP2 PUSH20 0xFFFFFFFFFFFFFFFFFFFFFFFFFFFFFFFFFFFFFFFF AND PUSH4 0xA9059CBB PUSH32 0x0 DUP4 PUSH1 0x40 MLOAD DUP4 PUSH4 0xFFFFFFFF AND PUSH1 0xE0 SHL DUP2 MSTORE PUSH1 0x4 ADD PUSH2 0x3BC SWAP3 SWAP2 SWAP1 PUSH2 0x7A3 JUMP JUMPDEST PUSH1 0x20 PUSH1 0x40 MLOAD DUP1 DUP4 SUB DUP2 PUSH0 DUP8 GAS CALL ISZERO DUP1 ISZERO PUSH2 0x3D8 JUMPI RETURNDATASIZE PUSH0 DUP1 RETURNDATACOPY RETURNDATASIZE PUSH0 REVERT JUMPDEST POP POP POP POP PUSH1 0x40 MLOAD RETURNDATASIZE PUSH1 0x1F NOT PUSH1 0x1F DUP3 ADD AND DUP3 ADD DUP1 PUSH1 0x40 MSTORE POP DUP2 ADD SWAP1 PUSH2 0x3FC SWAP2 SWAP1 PUSH2 0x931 JUMP JUMPDEST POP PUSH32 0x68577E4D693C1B056A60BC4E39438810239A0BFE64869C4EB7E3BAEBB5F65634 DUP3 DUP3 PUSH1 0x40 MLOAD PUSH2 0x42E SWAP3 SWAP2 SWAP1 PUSH2 0x7A3 JUMP JUMPDEST PUSH1 0x40 MLOAD DUP1 SWAP2 SUB SWAP1 LOG1 PUSH32 0x0 PUSH20 0xFFFFFFFFFFFFFFFFFFFFFFFFFFFFFFFFFFFFFFFF AND SELFDESTRUCT JUMPDEST PUSH32 0x0 PUSH20 0xFFFFFFFFFFFFFFFFFFFFFFFFFFFFFFFFFFFFFFFF AND CALLER PUSH20 0xFFFFFFFFFFFFFFFFFFFFFFFFFFFFFFFFFFFFFFFF AND EQ PUSH2 0x4C6 JUMPI PUSH0 DUP1 REVERT JUMPDEST DUP2 PUSH20 0xFFFFFFFFFFFFFFFFFFFFFFFFFFFFFFFFFFFFFFFF AND PUSH4 0x23B872DD ADDRESS PUSH32 0x0 DUP5 PUSH1 0x40 MLOAD DUP5 PUSH4 0xFFFFFFFF AND PUSH1 0xE0 SHL DUP2 MSTORE PUSH1 0x4 ADD PUSH2 0x523 SWAP4 SWAP3 SWAP2 SWAP1 PUSH2 0x95C JUMP JUMPDEST PUSH0 PUSH1 0x40 MLOAD DUP1 DUP4 SUB DUP2 PUSH0 DUP8 DUP1 EXTCODESIZE ISZERO DUP1 ISZERO PUSH2 0x53A JUMPI PUSH0 DUP1 REVERT JUMPDEST POP GAS CALL ISZERO DUP1 ISZERO PUSH2 0x54C JUMPI RETURNDATASIZE PUSH0 DUP1 RETURNDATACOPY RETURNDATASIZE PUSH0 REVERT JUMPDEST POP POP POP POP PUSH32 0x8400292AAB14B0A506995337C3CDB0AEF18286108B663D554410899BC0951B7E DUP3 DUP3 PUSH1 0x40 MLOAD PUSH2 0x581 SWAP3 SWAP2 SWAP1 PUSH2 0x7A3 JUMP JUMPDEST PUSH1 0x40 MLOAD DUP1 SWAP2 SUB SWAP1 LOG1 PUSH32 0x0 PUSH20 0xFFFFFFFFFFFFFFFFFFFFFFFFFFFFFFFFFFFFFFFF AND SELFDESTRUCT JUMPDEST DUP2 PUSH20 0xFFFFFFFFFFFFFFFFFFFFFFFFFFFFFFFFFFFFFFFF AND PUSH4 0x23B872DD CALLER ADDRESS DUP5 PUSH1 0x40 MLOAD DUP5 PUSH4 0xFFFFFFFF AND PUSH1 0xE0 SHL DUP2 MSTORE PUSH1 0x4 ADD PUSH2 0x5FF SWAP4 SWAP3 SWAP2 SWAP1 PUSH2 0x9EC JUMP JUMPDEST PUSH1 0x20 PUSH1 0x40 MLOAD DUP1 DUP4 SUB DUP2 PUSH0 DUP8 GAS CALL ISZERO DUP1 ISZERO PUSH2 0x61B JUMPI RETURNDATASIZE PUSH0 DUP1 RETURNDATACOPY RETURNDATASIZE PUSH0 REVERT JUMPDEST POP POP POP POP PUSH1 0x40 MLOAD RETURNDATASIZE PUSH1 0x1F NOT PUSH1 0x1F DUP3 ADD AND DUP3 ADD DUP1 PUSH1 0x40 MSTORE POP DUP2 ADD SWAP1 PUSH2 0x63F SWAP2 SWAP1 PUSH2 0x931 JUMP JUMPDEST POP PUSH32 0x98C09D9949722BAE4BD0D988D4050091C3AE7EC6D51D3C6BBFE4233593944E9E DUP3 CALLER DUP4 PUSH1 0x40 MLOAD PUSH2 0x673 SWAP4 SWAP3 SWAP2 SWAP1 PUSH2 0x95C JUMP JUMPDEST PUSH1 0x40 MLOAD DUP1 SWAP2 SUB SWAP1 LOG1 POP POP JUMP JUMPDEST PUSH32 0x0 DUP2 JUMP JUMPDEST DUP2 PUSH20 0xFFFFFFFFFFFFFFFFFFFFFFFFFFFFFFFFFFFFFFFF AND PUSH4 0x23B872DD CALLER ADDRESS DUP5 PUSH1 0x40 MLOAD DUP5 PUSH4 0xFFFFFFFF AND PUSH1 0xE0 SHL DUP2 MSTORE PUSH1 0x4 ADD PUSH2 0x6E0 SWAP4 SWAP3 SWAP2 SWAP1 PUSH2 0x95C JUMP JUMPDEST PUSH0 PUSH1 0x40 MLOAD DUP1 DUP4 SUB DUP2 PUSH0 DUP8 DUP1 EXTCODESIZE ISZERO DUP1 ISZERO PUSH2 0x6F7 JUMPI PUSH0 DUP1 REVERT JUMPDEST POP GAS CALL ISZERO DUP1 ISZERO PUSH2 0x709 JUMPI RETURNDATASIZE PUSH0 DUP1 RETURNDATACOPY RETURNDATASIZE PUSH0 REVERT JUMPDEST POP POP POP POP PUSH32 0x6BEB9379AF630D855C59B605909537F26C1D38EF62BC6645E8741985D890FDB0 DUP3 CALLER DUP4 PUSH1 0x40 MLOAD PUSH2 0x740 SWAP4 SWAP3 SWAP2 SWAP1 PUSH2 0x95C JUMP JUMPDEST PUSH1 0x40 MLOAD DUP1 SWAP2 SUB SWAP1 LOG1 POP POP JUMP JUMPDEST PUSH0 PUSH20 0xFFFFFFFFFFFFFFFFFFFFFFFFFFFFFFFFFFFFFFFF DUP3 AND SWAP1 POP SWAP2 SWAP1 POP JUMP JUMPDEST PUSH0 PUSH2 0x775 DUP3 PUSH2 0x74C JUMP JUMPDEST SWAP1 POP SWAP2 SWAP1 POP JUMP JUMPDEST PUSH2 0x785 DUP2 PUSH2 0x76B JUMP JUMPDEST DUP3 MSTORE POP POP JUMP JUMPDEST PUSH0 DUP2 SWAP1 POP SWAP2 SWAP1 POP JUMP JUMPDEST PUSH2 0x79D DUP2 PUSH2 0x78B JUMP JUMPDEST DUP3 MSTORE POP POP JUMP JUMPDEST PUSH0 PUSH1 0x40 DUP3 ADD SWAP1 POP PUSH2 0x7B6 PUSH0 DUP4 ADD DUP6 PUSH2 0x77C JUMP JUMPDEST PUSH2 0x7C3 PUSH1 0x20 DUP4 ADD DUP5 PUSH2 0x794 JUMP JUMPDEST SWAP4 SWAP3 POP POP POP JUMP JUMPDEST PUSH0 PUSH1 0x20 DUP3 ADD SWAP1 POP PUSH2 0x7DD PUSH0 DUP4 ADD DUP5 PUSH2 0x794 JUMP JUMPDEST SWAP3 SWAP2 POP POP JUMP JUMPDEST PUSH0 DUP1 REVERT JUMPDEST PUSH2 0x7F0 DUP2 PUSH2 0x76B JUMP JUMPDEST DUP2 EQ PUSH2 0x7FA JUMPI PUSH0 DUP1 REVERT JUMPDEST POP JUMP JUMPDEST PUSH0 DUP2 CALLDATALOAD SWAP1 POP PUSH2 0x80B DUP2 PUSH2 0x7E7 JUMP JUMPDEST SWAP3 SWAP2 POP POP JUMP JUMPDEST PUSH0 PUSH1 0x20 DUP3 DUP5 SUB SLT ISZERO PUSH2 0x826 JUMPI PUSH2 0x825 PUSH2 0x7E3 JUMP JUMPDEST JUMPDEST PUSH0 PUSH2 0x833 DUP5 DUP3 DUP6 ADD PUSH2 0x7FD JUMP JUMPDEST SWAP2 POP POP SWAP3 SWAP2 POP POP JUMP JUMPDEST PUSH2 0x845 DUP2 PUSH2 0x78B JUMP JUMPDEST DUP2 EQ PUSH2 0x84F JUMPI PUSH0 DUP1 REVERT JUMPDEST POP JUMP JUMPDEST PUSH0 DUP2 CALLDATALOAD SWAP1 POP PUSH2 0x860 DUP2 PUSH2 0x83C JUMP JUMPDEST SWAP3 SWAP2 POP POP JUMP JUMPDEST PUSH0 DUP1 PUSH1 0x40 DUP4 DUP6 SUB SLT ISZERO PUSH2 0x87C JUMPI PUSH2 0x87B PUSH2 0x7E3 JUMP JUMPDEST JUMPDEST PUSH0 PUSH2 0x889 DUP6 DUP3 DUP7 ADD PUSH2 0x7FD JUMP JUMPDEST SWAP3 POP POP PUSH1 0x20 PUSH2 0x89A DUP6 DUP3 DUP7 ADD PUSH2 0x852 JUMP JUMPDEST SWAP2 POP POP SWAP3 POP SWAP3 SWAP1 POP JUMP JUMPDEST PUSH0 PUSH1 0x20 DUP3 ADD SWAP1 POP PUSH2 0x8B7 PUSH0 DUP4 ADD DUP5 PUSH2 0x77C JUMP JUMPDEST SWAP3 SWAP2 POP POP JUMP JUMPDEST PUSH0 DUP2 MLOAD SWAP1 POP PUSH2 0x8CB DUP2 PUSH2 0x83C JUMP JUMPDEST SWAP3 SWAP2 POP POP JUMP JUMPDEST PUSH0 PUSH1 0x20 DUP3 DUP5 SUB SLT ISZERO PUSH2 0x8E6 JUMPI PUSH2 0x8E5 PUSH2 0x7E3 JUMP JUMPDEST JUMPDEST PUSH0 PUSH2 0x8F3 DUP5 DUP3 DUP6 ADD PUSH2 0x8BD JUMP JUMPDEST SWAP2 POP POP SWAP3 SWAP2 POP POP JUMP JUMPDEST PUSH0 DUP2 ISZERO ISZERO SWAP1 POP SWAP2 SWAP1 POP JUMP JUMPDEST PUSH2 0x910 DUP2 PUSH2 0x8FC JUMP JUMPDEST DUP2 EQ PUSH2 0x91A JUMPI PUSH0 DUP1 REVERT JUMPDEST POP JUMP JUMPDEST PUSH0 DUP2 MLOAD SWAP1 POP PUSH2 0x92B DUP2 PUSH2 0x907 JUMP JUMPDEST SWAP3 SWAP2 POP POP JUMP JUMPDEST PUSH0 PUSH1 0x20 DUP3 DUP5 SUB SLT ISZERO PUSH2 0x946 JUMPI PUSH2 0x945 PUSH2 0x7E3 JUMP JUMPDEST JUMPDEST PUSH0 PUSH2 0x953 DUP5 DUP3 DUP6 ADD PUSH2 0x91D JUMP JUMPDEST SWAP2 POP POP SWAP3 SWAP2 POP POP JUMP JUMPDEST PUSH0 PUSH1 0x60 DUP3 ADD SWAP1 POP PUSH2 0x96F PUSH0 DUP4 ADD DUP7 PUSH2 0x77C JUMP JUMPDEST PUSH2 0x97C PUSH1 0x20 DUP4 ADD DUP6 PUSH2 0x77C JUMP JUMPDEST PUSH2 0x989 PUSH1 0x40 DUP4 ADD DUP5 PUSH2 0x794 JUMP JUMPDEST SWAP5 SWAP4 POP POP POP POP JUMP JUMPDEST PUSH0 DUP2 SWAP1 POP SWAP2 SWAP1 POP JUMP JUMPDEST PUSH0 PUSH2 0x9B4 PUSH2 0x9AF PUSH2 0x9AA DUP5 PUSH2 0x74C JUMP JUMPDEST PUSH2 0x991 JUMP JUMPDEST PUSH2 0x74C JUMP JUMPDEST SWAP1 POP SWAP2 SWAP1 POP JUMP JUMPDEST PUSH0 PUSH2 0x9C5 DUP3 PUSH2 0x99A JUMP JUMPDEST SWAP1 POP SWAP2 SWAP1 POP JUMP JUMPDEST PUSH0 PUSH2 0x9D6 DUP3 PUSH2 0x9BB JUMP JUMPDEST SWAP1 POP SWAP2 SWAP1 POP JUMP JUMPDEST PUSH2 0x9E6 DUP2 PUSH2 0x9CC JUMP JUMPDEST DUP3 MSTORE POP POP JUMP JUMPDEST PUSH0 PUSH1 0x60 DUP3 ADD SWAP1 POP PUSH2 0x9FF PUSH0 DUP4 ADD DUP7 PUSH2 0x77C JUMP JUMPDEST PUSH2 0xA0C PUSH1 0x20 DUP4 ADD DUP6 PUSH2 0x9DD JUMP JUMPDEST PUSH2 0xA19 PUSH1 0x40 DUP4 ADD DUP5 PUSH2 0x794 JUMP JUMPDEST SWAP5 SWAP4 POP POP POP POP JUMP INVALID LOG2 PUSH5 0x6970667358 0x22 SLT KECCAK256 0xC4 0xB3 0xB7 ORIGIN COINBASE STOP TLOAD 0xC 0x27 PC 0xE5 ORIGIN GAS PUSH5 0x4D79839FE3 0xDE 0xE3 PUSH16 0x4F975BF93786D6E33BA864736F6C6343 STOP ADDMOD BYTE STOP CALLER "
				},
				"gasEstimates": {
					"creation": {
						"codeDepositCost": "529400",
						"executionCost": "infinite",
						"totalCost": "infinite"
					},
					"external": {
						"depositNFT(address,uint256)": "infinite",
						"depositTokens(address,uint256)": "infinite",
						"getBalance()": "335",
						"owner()": "infinite",
						"withdraw()": "infinite",
						"withdrawNFT(address,uint256)": "infinite",
						"withdrawTokens(address)": "infinite"
					}
				},
				"methodIdentifiers": {
					"depositNFT(address,uint256)": "9b5b9b18",
					"depositTokens(address,uint256)": "66168bd7",
					"getBalance()": "12065fe0",
					"owner()": "8da5cb5b",
					"withdraw()": "3ccfd60b",
					"withdrawNFT(address,uint256)": "6088e93a",
					"withdrawTokens(address)": "49df728c"
				}
			},
			"storageLayout": {
				"storage": [],
				"types": null
			},
			"userdoc": {
				"kind": "user",
				"methods": {},
				"version": 1
			}
		}
	}
}